:020000040801F1
:1000000000700420F7D5040805D60408E93204205E
:1000100007D6040807D6040807D6040811D6040832
:1000200011D6040811D6040811D6040861F201089B
:1000300007D6040811D60408C19D0208F52604203D
:1000400007D6040807D6040807D6040807D604080C
:1000500007D6040807D604086349060807D604082B
:1000600007D6040807D6040807D604087F21042011
:100070008721042007D6040807D6040807D60408F9
:1000800007D6040807D6040807D6040807D60408CC
:1000900007D6040807D6040807D6040807D60408BC
:1000A00007D6040807D6040807D60408A5BE040826
:1000B000AFBE040807D6040807D604083DCD0408DF
:1000C00047CD04088B400608439C040807D6040863
:1000D00011D60408EFD5040807D6040807D604088B
:1000E00007D6040807D6040807D6040807D604086C
:1000F00007D6040807D6040807D604089D7402082A
:1001000007D60408799C0208777C0608550C042061
:100110004B1104207DBE040887BE040829CD0408C5
:1001200033CD0408F1D5040807D6040807D604081F
:1001300007D6040807D6040807D6040807D604081B
:1001400007D6040807D6040807D6040807D604080B
:1001500007D60408F5D5040807D6040807D604080E
:1001600007D6040807D6040807D6040807D60408EB
:1001700007D6040807D6040807D6040807D60408DB
:1001800091BE04089BBE040807D6040807D60408DD
:10019000F3D5040807D6040807D6040807D60408D0
:1001A00007D6040807D60408B9BE0408C3BE04086D
:1001B00007D6040807D604085BCD040851CD04080F
:1001C00007D6040807D6040807D6040807D604088B
:1001D00007D6040807D6040807D6040807D604087B
:1001E00007D6040807D6040807D6040807D604086B
:1001F00007D6040807D6040807D6040807D604085B
:1002000007D6040807D6040807D6040811D6040840
:1002100011D6040807D6040811D6040807D6040826
:1002200007D6040807D6040807D6040807D604082A
:1002300007D6040807D6040807D6040807D604081A
:0C02400007D6040807D6040807D60408F7
:04024C00FFFFFFFFB2
:10025000312E30302E3034004452382020202020DF
:1002600032323337303538302D3030312030303085
:100270004A756C20323320323032362031333A34F2
:10028000313A313220202020202020202020202020
:10029000207EAA0C00000000207EAA0C00000000B6
:1002A000207EAA0C00000000207EAA0C00000000A6
:1002B000207EAA0C00000000207EAA0C0000000096
:1002C000207EAA0C00000000207EAA0C0000000086
:1002D000207EAA0C00000000207EAA0C0000000076
:1002E000207EAA0C00000000207EAA0C0000000066
:1002F000207EAA0C00000000207EAA0C0000000056
:10030000207EAA0C00000000207EAA0C0000000045
:10031000EDAF16204A62304029BD56B31544E9BFFF
:1003200077900D9CFE0B88C07E2615FA8380734063
:080330000FCE674B80D541C0E0
:100338000000000074760520010000007676052094
:100348000200000078760520030000007A76052078
:10035800040000007C760520050000007E7605205C
:100368000600000080760520070000008276052040
:100378000800000084760520090000008676052024
:100388000A000000887605200B0000008A76052008
:100398000C0000008C7605200D0000008E760520EC
:1003A8000E000000907605200F00000092760520D0
:1003B80010000000947605201100000096760520B4
:1003C8001200000098760520130000009A76052098
:1003D800140000009C760520150000009E7605207C
:1003E80016000000A076052017000000A276052060
:1003F80018000000A476052019000000A676052044
:100408001A000000A87605201B000000AA76052027
:100418001C000000AC7605201D000000AE7605200B
:100428001E000000B07605201F000000B2760520EF
:1004380020000000B476052021000000B6760520D3
:1004480022000000B876052023000000BA760520B7
:1004580024000000BC76052025000000BE7605209B
:1004680026000000C076052027000000C27605207F
:1004780028000000C476052029000000C676052063
:100488002A000000C87605202B000000CA76052047
:100498002C000000CC7605200000000074750520B3
:1004A800010000007675052002000000787505201F
:1004B800030000007A750520040000007C75052003
:1004C800050000007E7505200600000080750520E7
:1004D80007000000827505200800000084750520CB
:1004E80009000000867505200A00000088750520AF
:1004F8000B0000008A7505200C0000008C75052093
:100508000D0000008E7505200E0000009075052076
:100518000F0000009275052010000000947505205A
:10052800110000009675052012000000987505203E
:10053800130000009A750520140000009C75052022
:10054800150000009E75052016000000A075052006
:1005580017000000A275052018000000A4750520EA
:1005680019000000A67505201A000000A8750520CE
:100578001B000000AA7505201C000000AC750520B2
:100588001D000000AE7505201E000000B075052096
:100598001F000000B275052020000000B47505207A
:1005A80021000000B675052022000000B87505205E
:1005B80023000000BA75052024000000BC75052042
:1005C80025000000BE75052026000000C075052026
:1005D80027000000C275052028000000C47505200A
:1005E80029000000C67505202A000000C8750520EE
:1005F8002B000000CA7505202C000000CC750520D2
:10060800000003000076052000000000010103003F
:100618000076052001000000020201000076052096
:10062800020000000303010000760520030000001B
:1006380004040300007605200400000005050300FB
:100648000076052005000000060603000076052058
:1006580006000000070701000076052007000000DB
:1006680008080300007605200800000009090300B7
:1006780000760520090000000A0A0300007605201C
:100688000A0000000B0B0100007605200B0000009B
:100698000C0C0100007605200C0000000D0D030075
:1006A800007605200D0000000000030002760520FA
:1006B800000000000101030002760520010000008F
:1006C8000202030002760520020000000303030073
:1006D80002760520030000000404030002760520CA
:1006E800040000000505030002760520050000004F
:1006F800060603000276052006000000070703002F
:10070800027605200700000008080300027605208D
:10071800080000000909030002760520090000000E
:100728000A0A0300027605200A0000000B0B0000ED
:10073800027605200B0000000C0C01000276052053
:100748000C0000000D0D0300027605200D000000CE
:100758000000020000000000000000000700070081
:10076800010001000100010002000000000000007B
:100778000000000000000000000000000000000071
:10078800000000000000000001000000000002005E
:100798000100000000000000070007000100010040
:1007A800010001000200000000000000000000003D
:1007B8000000000000000000000000000000000031
:1007C800000000000100000000000200010000001D
:1007D80000000000070007000100010001000100FF
:1007E80002000000010000000000000000000000FE
:1007F80000000000000000000000000000000000F1
:1008080001000000000002000100000000000000DC
:1008180007000700010001000100010002000000BC
:1008280000000000000000000000000000000000C0
:1008380000000000010000000000000001000000AE
:100848000000020000000000000000000700070090
:10085800010001000100010002000000000000008A
:100868000000000000000000000000000000000080
:0C08780000000000010000000100000072
:100884005D6104087761040891610408AB610408A0
:10089400E961040827620408132506086562040850
:1008A400A3620408E16204081F6304085D6304088A
:1008B4009B630408D9630408176404085564040896
:1008C40093640408D16404080F6504084D650408A2
:1008D4008B650408C9650408FF6504083D660408BF
:1008E40073660408A9660408CB250608DF660408B5
:1008F4001D6704085B67040899670408D767040840
:1009040015680408D76804081569040853690408BD
:100914000726060891690408CF6904080D6A0408CB
:100924004B6A040887260608896A0408C76A04080B
:10093400056B0408436B0408816B0408BF6B04084F
:10094400D3260608FD6B0408F76C04082D6E040812
:10095400C7270608776F0408717004080B29060876
:100964005B2A0608FF710408417304088F740408A5
:0C097400997804083F790408E57904082C
:100980000000020001000500080000000900070047
:100990000100010001000100020000000000000051
:1009A0000000000000000000000000000000000047
:1009B0000000000000000000030000000000020032
:1009C0000100060009000000090007000100010005
:1009D0000100010002000000000000000000000013
:1009E0000000000000000000000000000000000007
:1009F00000000000030000000000020001000500EC
:100A000008000000090007000100010001000100CA
:100A100002000000000000000000000000000000D4
:100A200000000000000000000100000000000000C5
:100A300003000000000002000100060009000000A1
:100A40000900070001000100010001000200000090
:100A50000000000000000000000000000000000096
:100A60000000000001000000000000000300000082
:100A70005807010805000100F80B010803000200F7
:100A80008009010804000300940E0108020004001C
:100A90001C0E010802000500901301080100060069
:100AA000A40D01080200070054130108010008000A
:100AB0001813010801000900DC12010801000A00F6
:100AC0007015010801000B0058070108050001001E
:100AD0003415010801000D00F814010801000E0092
:100AE0006411010802000F00EC1001080200100060
:100AF000BC1401080100110074100108020012006A
:100B0000FC0F010802001300840F0108020014000A
:100B100080140108010015004414010801001600AA
:100B20000C0F01080200170008140108010018004A
:080B3000CC13010801001900BB
:100B38000000000008760520010100000A76052063
:100B4800020200000C760520030300000E76052043
:100B58000404000010760520050500001276052023
:100B68000606000014760520070700001676052003
:100B7800080000002C760520090100002E760520CB
:100B88000A020000307605200B03000032760520AB
:100B9800000000001A760520010100001C760520DF
:100BA800020200001E7605200303000020760520BF
:100BB800040400002276052005050000247605209F
:100BC800060600002676052007070000287605207F
:100BD800080000003476052009010000367605205B
:100BE8000A020000387605200B0300003A7605203B
:100BF80000000100000000000000000007000700DE
:100C080001000300010003000200000000000000D2
:100C180000000000000000000000000000000000CC
:100C280000000000000000000200000000000100B9
:100C38000100000000000000070007000100030099
:100C48000100030002000000000000000000000096
:100C5800000000000000000000000000000000008C
:100C68000000000002000000000001000100000078
:100C78000000000007000700010003000100030056
:100C8800020000000000000000000000000000005A
:100C9800000000000000000001000000000000004B
:040CA8000200000046
:100CAC00D9990108FF000000E50C0308FF000000C3
:100CBC00D5A00108AA000000175F0308550000002A
:100CCC00C7F90508110000005B810608AA000000A6
:100CDC005B810608AA0000005B810608AA000000E0
:100CEC005B810608AA0000005B810608AA000000D0
:100CFC005B810608AA0000005B810608AA000000C0
:100D0C00BF710608AA000000331405085500000046
:100D1C003B14050855000000000000000000000016
:100D2C004B870608FF0000002B7F0508FF00000022
:100D3C00DF5F030822000000DD60030822000000D2
:100D4C00C565030844000000476B0308440000001D
:100D5C00177E050844000000456D0308880000005C
:100D6C000F7D050811000000E37E0508200000003F
:100D7C00B369030802000000F36C030804000000D0
:100D8C00C96A030820000000912D0208AA00000087
:080D9C0000000000000000004F
:100DA4000000020001000000000000000700000035
:100DB4000100010001000300020000000000000027
:100DC400000000000000000000000000000000001F
:100DD4000100000000000000070000000000020005
:100DE40000000000000000000700000001000100F6
:100DF40001000300020000000000000000000000E9
:100E040000000000000000000000000001000000DD
:080E14000000000007000000CF
:100E1C0000000600010005000800000009000700A2
:100E2C0001000F0001000F00020000000000000094
:100E3C0000000000000000000000000000000000A6
:100E4C00010000000000000005000000000006008A
:100E5C0001000600090000000900070001000F0056
:100E6C0001000F0002000000000000000000000064
:100E7C000000000000000000000000000100000065
:080E8C00000000000500000059
:100E9400000001000100050008000000090007002F
:100EA4000100030001000300020000000000000034
:100EB400000000000000000000000000000000002E
:100EC4000100000000000000040000000000010018
:100ED40001000600090000000900070001000300EA
:100EE40001000300020000000000000000000000F8
:100EF40000000000000000000000000001000000ED
:080F04000000000004000000E1
:100F0C0000000600000000000000000000000700C8
:100F1C000100FF0001000F000200000000000000B3
:100F2C0000000000000000000000000000000000B5
:100F3C000100000000000000170000000000060087
:100F4C000100000000000000000007000100FF008D
:100F5C0001000F0002000000000000000000000073
:100F6C000000000000000000000000000100000074
:080F7C00000000001700000056
:100F84000000020000000000000000000000070054
:100F94000100030001000100020000000000000045
:100FA400000000000000000000000000000000003D
:100FB4000100000000000000140000000000020016
:100FC4000100000000000000000007000100030011
:100FD4000100010002000000000000000000000009
:100FE40000000000000000000000000001000000FC
:080FF4000000000014000000E1
:100FFC0000000100010005000800000009000000CD
:10100C000100030001000F000200000000000000BE
:10101C0000000000000000000000000000000000C4
:10102C00010000000000000013000000000001009F
:10103C000100060009000000090000000100030087
:10104C0001000F0002000000000000000000000082
:10105C000000000000000000000000000100000083
:08106C00000000001300000069
:101074000000020001000500080000000900000053
:101084000100010001000300020000000000000054
:10109400000000000000000000000000000000004C
:1010A4000100000000000000120000000000020027
:1010B4000100060009000000090000000100010011
:1010C4000100030002000000000000000000000016
:1010D400000000000000000000000000010000000B
:0810E4000000000012000000F2
:1010EC0000000600010005000800000009000000D7
:1010FC0001000F000100FF000200000000000000D2
:10110C0000000000000000000000000000000000D3
:10111C0001000000000000001000000000000600AC
:10112C0001000600090000000900000001000F008A
:10113C000100FF00020000000000000000000000A1
:10114C000000000000000000000000000100000092
:08115C0000000000100000007B
:10116400000006000100000000000000070000006D
:1011740001000F000100FF00020000000000000059
:10118400000000000000000000000000000000005B
:1011940001000000000000000F0000000000060035
:1011A40000000000000000000700000001000F0024
:1011B4000100FF0002000000000000000000000029
:1011C400000000000000000000000000010000001A
:0811D400000000000F00000004
:1011DC00002000087F2000084D2200087F22000814
:1011EC0080220008FF22000881240008C724000880
:1011FC00003000087F3A0008A48000087F8D0008AA
:10120C00002010087F2010084D2210087F221008A3
:10121C0080221008FF22100881241008C72410080F
:10122C00003010087F3A1008A48010087F8D100839
:10123C007D000000409C0000C3180100FA00000073
:10124C00409C000046950100F4010000409C000009
:10125C004C8E0200F4010000409C00004C8E0200F9
:10126C007D000000409C0000C3180100FA00000043
:10127C00409C000046950100F4010000409C0000D9
:10128C004C8E0200E803000080380100981C050019
:10129C00000000000001000000020000000300003C
:1012AC00000400000005000000060000000700001C
:1012BC00000000000001000000020000000300001C
:1012CC0000040000000500000006000000070000FC
:1012DC000000020000000000000000000000000000
:1012EC0001000300010003000200000000000000E8
:1012FC0000000000000000000000000000000000E2
:0C130C0001000000000000000A000000CA
:1013180000000300000000000000000000000000C2
:1013280001000100010001000200000000000000AF
:1013380000000000000000000000000000000000A5
:0C1348000100000000000000090000008F
:101354000000010001000000000000000700000080
:101364000100030001000F00020000000000000063
:101374000000000000000000000000000000000069
:0C13840001000000000000000800000054
:101390000000060001000000000000000700070038
:1013A00001000F0001000F0002000000000000001B
:1013B000000000000000000000000000000000002D
:0C13C0000100000000000000060000001A
:1013CC0000000700010005000800000009000700EC
:1013DC000100FF000100FF000200000000000000FF
:1013EC0000000000000000000000000000000000F1
:0C13FC00010000000000000019000000CB
:1014080000000100010000000000000000000700CB
:1014180001000F00010003000200000000000000AE
:1014280000000000000000000000000000000000B4
:0C1438000100000000000000180000008F
:101444000000060000000000000000000000000092
:101454000100FF000100FF00020000000000000086
:101464000000000000000000000000000000000078
:0C14740001000000000000001600000055
:101480000000010000000000000000000000040057
:1014900001000F000100FF0002000000000000003A
:1014A000000000000000000000000000000000003C
:0C14B0000100000000000000150000001A
:1014BC000000020001000000000000000A000A0009
:1014CC00010001000100010002000000000000000A
:1014DC000000000000000000000000000000000000
:0C14EC00010000000000000011000000E2
:1014F80000000700000000000000000007000700CF
:101508000100FF000100FF000200000000000000D1
:1015180000000000000000000000000000000000C3
:0C15280001000000000000000E000000A8
:10153400000004000000000000000000040004009B
:101544000100010001000100020000000000000091
:101554000000000000000000000000000000000087
:0C15640001000000000000000D0000006D
:10157000000001000000000000000000000000006A
:1015800001000F0001000F00020000000000000039
:10159000000000000000000000000000000000004B
:0C15A00001000000000000000B00000033
:1015AC00A82901087627010878290108582A01087A
:1015BC00F82A01081C2B010800000000182901085A
:1015CC0022270108E8280108082A0108E02A010856
:0815DC00102B010800000000C3
:1015E4000080D4428F42CE420040CE41D723DF4216
:1015F400008054428F424E420080D44100805443C4
:0C1604000000614300E0624300000000B1
:101610000080D4428F42CE420040CE41D723DF42E9
:10162000008054428F424E420080D4410080544397
:0C1630000000614300E062430000000085
:10163C00D55F0000AC430000C599000008EC000029
:10164C0092F10000CFCC0000B29400004BEE0000F1
:0C165C00DEF10000A9C100009E090000A2
:10166800D55F0000AC430000C599000008EC0000FD
:1016780092F10000CFCC0000B29400004BEE0000C5
:0C168800DEF10000A9C100009E09000076
:10169400A4300900AC300900B4300900BC300900A2
:1016A400C4300900CC300900D4300900DC30090012
:0C16B400E4300900EC300900E4310900CA
:1016C000375A0000CB4700002F9D0000ECE90000D6
:1016D0004BF50000BCC000005B9F000028EA000042
:0C16E000C7F400006CC500008C0800007E
:1016EC00C35A000060470000889E000035E90000E6
:1016FC009DF400001DC00000D8980000B0EB000065
:0C170C003DF40000A9C400009E0900008C
:10171800A0300900A8300900B0300900B83009002D
:10172800C0300900C8300900D0300900D83009009D
:0C173800E0300900E8300900E031090051
:10174400D82901087E28010878290108802A01087F
:10175400000000004829010846280108E82801087B
:08176400302A0108000000001A
:10176C00000014003C76052001010C003E7605209B
:10177C0002020C004076052003030C004276052083
:10178C0024D400002CD4000034D400003CD400003D
:10179C0044D400004CD4000054D400005CD40000AD
:1017AC0020D4000028D4000030D4000038D400002D
:1017BC0040D4000048D4000050D4000058D400009D
:1017CC0000E0060004E0060008E006000CE006005D
:1017DC0010E0060014E0060018E006001CE006000D
:1017EC000000005800000158000002580000035887
:1017FC000000045800000558000006580000075867
:10180C0050000000D000000050010000D00100008A
:10181C0050020000D002000050030000D003000072
:10182C0050000000D000000050010000D00100006A
:10183C0050020000D002000050030000D003000052
:10184C0050000000D000000050010000D00100004A
:10185C0050020000D002000050030000D003000032
:10186C0050000000D000000050010000D00100002A
:10187C0050020000D002000050030000D003000012
:10188C000000000001001002047605200100000099
:08189C007200403506760520BC
:1018A40000000000000002420002000000000242AA
:0418B400000400002C
:1018B800000000410000803F0000003E0000803F23
:0C18C800E17A143FD34D7641B29D75418A
:0818D400007000E000A000E03C
:0418DC000000000008
:1018E000FF0102040810204080010204081020407B
:1018F0008000FF00FF005503000C003000C0000313
:10190000000C003000C00000FF00FF00FF010204D7
:101910000810204080010204081020408000FF00D1
:10192000FF005503000C003000C00003000C003025
:1019300000C00000FF00FF00110F000000F00000D9
:10194000000F000000F000000000FF00FF00110F7A
:10195000000000F00000000F000000F00000000098
:10196000FF00FF000F030C30C00000000001020464
:10197000080000000000FF00FF00050F00F000005D
:1019800000000003000C000000000000FF00FF004A
:10199000FF010204081020408001020408102040CA
:1019A0008000FF00FF005503000C003000C0000362
:1019B000000C003000C00000FF00FF00110F00000D
:1019C00000F00000000F000000F000000000FF0029
:1019D000FF00110F000000F00000000F000000F0F9
:1019E00000000000FF00FF00FF010204081020407B
:1019F00080010204081020408000FF00FF0001FF6A
:101A000000000000000000FF0000000000000000D7
:101A1000FF00FF0001FF000000000000000F0000B9
:101A2000000000000000FF00FF0001FF00000000B8
:101A30000000000F0000000000000000FF00FF0099
:101A4000FF01020408102040800102040810204019
:101A50008000FF00FF000F030C30C00000000001F9
:101A60000204080000000000FF00FF00050F00F066
:101A7000000000000003000C000000000000FF0058
:101A8000FF000F0102040800000000030C30C0003A
:101A900000000000FF00FF0001FF00000000000048
:101AA000000F0000000000000000FF00FF0001FF29
:101AB00000000000000000FF000000000000000027
:101AC000FF00FF00010F00000000000000FF000009
:101AD000000000000000FF00FF0011030000000CE8
:101AE0000000000F000000F000000000FF00FF00F9
:101AF00001FF00000000000000FF000000000000E7
:101B00000000FF00FF00FF010204081020408001D8
:101B10000204081020408000FF00FF00FF010204C3
:101B20000810204080010204081020408000FF00BF
:101B3000FF0001FF00000000000000FF00000000A7
:081B400000000000FF00FF009F
:101B4800F4FF0000F5FF0000F6FF0000FBFF0100B6
:101B5800FCFF0000FEFF0400FFFF010000000F0073
:101B680001000F0002000F0003000F0004000F0027
:101B780005000F000600060007000F0008000F0010
:101B880009000F000A000F000B0006000C000600F9
:101B98000D000F000E000F000F000F0010000F00C7
:101BA80011000F0012000F0013000F0014000F00A7
:101BB80015000F0016000F0017000F0018000F0087
:101BC80019000F001A000F001B000F001C00020074
:101BD8001D000F001E000F001F000300200003005F
:101BE800210002002200020023000F00250002004D
:101BF80026000F0027000F0028000F0029000F0003
:101C08002A000F002B000F002C000F002D000F00E2
:101C18002E000F002F00010030000F0031000700D8
:101C280032000100330000003400000035000200DB
:101C380036000200370002003800020039000200B6
:101C48003A000F003B000F003C000F003D000F0062
:101C58003E000F003F000F0040000F0041000F0042
:101C680042000F0043000F0044000F00450002002F
:101C780046000F0047000F0048000F0049000F0002
:101C88004A000F004B000F004C000F004D000F00E2
:101C98004E000F004F000F005000020051000200DC
:101CA80052000F0053000F0054000F0055000F00A2
:101CB80056000F0057000F0058000F0059000F0082
:101CC8005A0002005B0002005C000F005D000F007C
:101CD8005E0003005F00030060000F0061000F005A
:101CE80062000F0063000F0064000F0065000F0022
:101CF80066000F0067000F0068000F0069000F0002
:101D08006A000F006B000F006C000F006D000F00E1
:101D18006E000F006F000F0070000F0071000F00C1
:101D280072000F0075000F0076000F0077000F009B
:101D380078000F0079000F007A000F007B000F0079
:101D48007C000F007D000F007E000F007F000F0059
:0C1D580080000F0081000F0082000F00CF
:101D6400FF7FFF7FFF7FFF7FFF7FFF7FFF7FFF7F7F
:101D7400FF7FFF7FFF7FFF7FFF7F747C23791376D4
:101D84003B739370166EBF6B896972677565916357
:101D9400C3610960625ECC5C455BCD5962580457EF
:101DA400B2556A542C53F851CD50AB4F904E7D4DE3
:101DB400704C6B4B6B4A72497F489047A746C345AA
:101DC400E444094432435F429141C640FE3F3A3FF6
:101DD400793EBC3D013D4A3C953BE33A333A873971
:101DE400DC3834388E37EA364836A9350B356F344B
:101DF400D5333D33A73212327F31ED305D30CE2FF3
:101E0400412FB52E2A2EA12D192D922C0C2C882B66
:101E1400042B822A002A8029012982280528882760
:101E24000D27922618269E252625AE243724C12365
:101E34004B23D6226122EE217A21082196202420E8
:101E4400B31F431FD31E631EF41D861D171DA91C3B
:101E54003C1CCF1B621BF61A8A1A1E1AB3194819A6
:101E6400DD18721808189E173417CA166116F7156C
:101E74008E152515BC145314EB1382131A13B112C7
:101E84004912E11178111011A8104010D70F6F0FEB
:101E9400070F9E0E360ECD0D640DFB0C920C290C13
:101EA400C00B570BED0A830A190AAF094409D90874
:101EB4006E08020897072A07BE065106E405760550
:101EC400080599042A04BA034A03D9026802F601F0
:101ED400840110019D002800B3FF3CFFC6FE4EFEA6
:101EE400D5FD5BFDE1FC65FCE9FB6BFBECFA6CFAF0
:101EF400EBF969F9E5F860F8D9F751F7C7F63CF65C
:101F0400AFF520F58FF4FCF368F3D0F237F29BF1D0
:101F1400FDF05CF0B8EF12EF68EEBAED0AED55ECA7
:101F24009DEBE0EA1FEA59E98DE8BDE7E6E609E63C
:101F340024E539E445E348E241E12FE011DFE6DD41
:101F4400ACDC60DB02DA8DD8FFD652D582D386D1E1
:101F540054CFDECC0FCAC6C6CAC2B2BD8CB634AA30
:101F6400FF7FFF7FFF7FFF7FFF7FFF7FFF7FFF7F7D
:101F7400857FCA7A9F76E9728F6F856CBB69266705
:101F8400C5648A627660835EA95CE95A4059AE579B
:101F94002C56BB545A530852C050884F5A4E364D93
:101FA4001C4C0A4B004A004908481447294643453B
:101FB40064448843B342E441174152408F3FCF3ECB
:101FC400173E5F3DAC3CFB3B4F3BA63AFD395A39CB
:101FD400B8381C388037E6364F36B8352635943451
:101FE40008347B33EE326632DF315A31D43052302A
:101FF400D22F522FD22E542EDA2D5F2DE62C6E2C9A
:10200400F82B832B0D2B9A2A262AB6294529D42866
:102014006628F8278A271F27B3264826DF25762532
:102024000D25A4243D24D72371230D23A622432266
:10203400DF217B211A21B6205420F31F921F331F66
:10204400D21E731E141EB61D571DF81C9A1C3D1C6F
:10205400DF1B831B261BCA1A6E1A121AB6195C19C7
:102064000019A4184A18F11794173B17E11688169B
:102074002C16D21578151F15C5146C141214B81328
:102084005F130513AC125412FB11A1114811EE1089
:1020940094103B10DF0F850F2C0FD20E780E1C0E00
:1020A400C30D660D0D0DB10C570CFB0B9F0B430BB1
:1020B400E60A8A0A2C0ACF0971091209B3085408DE
:1020C400F60797073607D70676061406B1054F05B7
:1020D400EC0488042404C0035A03F3028D0224028E
:1020E400BB015201E6007D000F00A4FF36FFC8FECD
:1020F40057FEE6FD76FD00FD8DFC17FC9FFB26FBDD
:10210400ACFA31FAB3F933F9B1F82EF8A9F721F79B
:1021140097F60DF67DF5ECF45AF4C3F329F38AF23D
:10212400ECF148F19FF0F3EF43EF8DEED2ED12EDB9
:102134004AEC7DEBA9EACFE9ECE8FDE705E703E625
:10214400F3E4D7E3A9E269E114E0A6DE1CDD6EDB6B
:1021540097D988D736D585D252CF4FCBE4C52CBD7D
:10216400010200000000170000001700000000003A
:10217400000002010000000017000000170000002A
:1021840000000000030200000000170000001934E2
:10219400000000000000040100000000170000001F
:1021A40019340000000000000506000000001700BC
:1021B40000001934000000000000060600000000C2
:1021C40017000000170000000000000007020000D4
:1021D40000003000000017000000000000000801AB
:1021E40000000000300000001700000000000000A4
:1021F400090300000000300000003000000000006F
:1022040000000A020000000030000000300000005E
:10221400000000000B01000000003000000030004E
:102224000000000000000C02000000005400000048
:1022340054000000000000000D04000000005400E1
:10224400000054000000000000000E070000000021
:102254001700000017000000000000000F06000037
:10226400000030000000170000000000000010060D
:1022740000000000300000001934000000000000DD
:102284001102000000001A2200001A45000000009C
:1022940000001202000000003000000019340000A9
:1022A4000000000013010000000030000000193499
:1022B40000000000000014020000000017000000ED
:1022C4003000000000000000150100000000540070
:1022D40000003000000000000000160600000000AE
:1022E400300000003000000000000000170600006D
:1022F400000017000000300000000000000018017A
:102304000000000017000000300000000000000082
:102314001907000000001700000019340000000035
:1023240000001A030000000000000000000000008C
:10233400000000001B070000000019110000193400
:102344000000000000001C0700000000170000004F
:08235400300000000000000051
:10235C00090090010000880100000B0190010000B1
:10236C00880100000D0290010000880100000F039D
:10237C0090010000880100000A049001000088010F
:10238C0000000C0590010000880100000E06900171
:10239C000000880100001007900100008801000077
:1023AC0011000000000000000000130100000000FC
:1023BC0000000000150200000000000000001703E0
:1023CC0000000000000000001904000000000000E4
:1023DC0000000405500005004B000A000506FFFF35
:1023EC001234FFFF13800707FFFF1400FFFF1A00D2
:1023FC0012000000000000000000140100000000AA
:10240C00000000001602000000000000000018038D
:10241C0000000000000000001A0400000000000092
:10242C000000000500000000000000000606FFFF91
:10243C001234FFFF13800807FFFF1400FFFF1A0080
:10244C001B0000090000000500001C010009000031
:10245C00000500001D0200090000000500001E031D
:10246C0000090000000500001F0400090000000521
:10247C0000002005000900000005000021060009ED
:10248C000000000500002207000900000005000004
:10249C00120200001B1C00000000000200000001E2
:1024AC00000000000002400000800000000000025C
:1024BC00400100800000000000024002008000008B
:1024CC0000000002400300800000000000024800F1
:1024DC00000C0000000000024801000C000000008D
:1024EC0000024802000C0000000000024803000C2F
:1024FC0000000000000246004347000000000002FC
:10250C00460143470000000000024602434700001A
:10251C0000000002460343470000000000024C008C
:10252C0000080000000000024C0100080000000040
:10253C0000024C0200080000000000024C030008DE
:04254C00000000008B
:102550001101000023040000000000010700F90041
:10256000000000000001080001A4000000000001BC
:102570000D00000000000000000217000D07000021
:102580000000120217000D070000000000010B0000
:102590003E000000000000010C00AC000000000044
:1025A0000001420000000000000000015200000095
:1025B00000000000000162000000000000000001B7
:1025C000720000000000000000024A0001900000BC
:1025D000000000025A0001900000000000026A00A2
:1025E00001900000000000027A000190000000004D
:0A25F00000010D000F0000000000C4
:1025FA00240510273B80320048BB32004980320054
:10260A0053003200560032005700320058003200A0
:10261A0062BB3200638032006D003200700032000B
:10262A0071003200720032007C9632007D00320066
:10263A00870032008A0032008B0032008C003200A0
:10264A0096BB320097803200A1003200A40032000B
:10265A00A50032003F0032005C00320076003200F2
:04266A0090003200AA
:10266E00150500005043012C050000010500010076
:10267E00000000000001070008000000000000013B
:10268E0010000F0000000000110110000F000000EC
:10269E00000000010F000F00000000000005080000
:1026AE0003646464640015050800036464646400D4
:0A26BE0000010E000F0000000000F4
:1026C800150500005043012C000000010500010021
:1026D80000000000000107000800000000000001E1
:1026E80010000F0000000000110110000F00000092
:1026F800000000010F000F000000000000050800A6
:102708000364646464001505080003646464640079
:0A27180000010E000F000000000099
:102722000001E59F00800400008104000082040093
:10273200008304000085100000861000008710004E
:102742000088110000950100009600000097120019
:102752000001000000890000008A0000008B0000D8
:10276200008C0000008E0000008F0000009000002E
:04277200FFFFFFFF67
:102776000001E59F0080040000810400008204003F
:1027860000830400008510000086100000871100F9
:1027960000881100009501000096000000971200C5
:1027A6000001000000890000008A0000008B000084
:1027B600008C0000008E0000008F0000FFFFFFFF6E
:1027C6000000FFFFFDFFFCFFFAFFF9FFF7FFF6FF32
:1027D6000000FEFFFCFFFAFFF8FFF6FFF5FFF3FF30
:1027E6000000FDFFFAFFF7FFF4FFF2FFEFFFECFF3B
:1027F6000000FCFFF9FFF5FFF2FFEEFFEAFFE7FF3F
:102806000000FDFFFAFFF7FFF5FFF2FFEFFFEDFF18
:102816000000FCFFF8FFF5FFF1FFEDFFEAFFE6FF22
:102826000000FAFFF4FFEFFFE9FFE4FFDEFFD9FF48
:102836000000F9FFF2FFEAFFE3FFDDFFD6FFD0FF5E
:102846000001E59F0084100000851000008610003E
:102856000087100000950100009600000097120006
:1028660000010000008D6006008E6006008F600685
:0828760000906006FFFFFFFF68
:10287E000001E59F00841000008510000086100006
:10288E0000871000009501000096000000971200CE
:10289E0000010000008D6006008E6006008F60064D
:0828AE0000906006FFFFFFFF30
:1028B600110101005D00000000000001020003009C
:1028C6000000000000011100880000000000000167
:1028D6001200880000000000000110001100000036
:0228E6000000F0
:1028E8000001E59F00A91C0000AB1C0000AD1C0006
:1028F80000AF1C0000A5E10300A8000000AA00002A
:1029080000AC000000AE000000010000FFFFFFFF68
:102918000001E59F010844410109800501100000FC
:1029280000103C500030AA56003117040035000052
:102938000032003000330038003A0820FFFFFFFF64
:102948000001E59F010844410109800501100000CC
:1029580000103C500030AA55003116000035000028
:102968000032003800330038003A0800FFFFFFFF4C
:102978000001E59F00A91C0000AB1C0000AD1C0075
:1029880000AF1C0000A5E10300A8000000AA000099
:1029980000AC000000AE000000010000FFFFFFFFD8
:1029A8000001E59F0108444101098005011000006C
:1029B80000103C5000300A160031170400350000A2
:1029C80000328C3800338C38003A0820FFFFFFFFB4
:1029D8000001E59F0108444101098005011000003C
:1029E80000103C500030AA55003116000035000098
:1029F8000032003800330038003A0800FFFFFFFFBC
:102A08000159000000594000015C0000005C04000E
:102A1800005DFF00005F0E7C00607F000057080823
:082A280000580000FFFFFFFF52
:102A30000159000000594000015C0000005C0400E6
:102A4000005DFF00005F0FBC00607F0000570808BA
:082A500000580000FFFFFFFF2A
:102A58000159000000594000015C0000005C0400BE
:102A6800005DFF00005F0E4C00607F000057080803
:082A780000580000FFFFFFFF02
:102A80000159000000594000015C0000005C040096
:102A9000005DFF00005F0FBC00607F00005708086A
:082AA00000580000FFFFFFFFDA
:102AA8000018005AFF20FF1200000000000000007C
:0C2AB80000000000000000000000FFFF14
:102AC4000018005AFF20FF12000000000000000060
:0C2AD40000000000000000000000FFFFF8
:102AE0000001E59F00C07F0000CA7F0000C20070A7
:082AF00000010000FFFFFFFFE1
:102AF8000001E59F00C07F0000CA7F0000C200708F
:082B080000010000FFFFFFFFC8
:0C2B100000B6802E00391800FFFFFFFF08
:0C2B1C0000B6802E00391800FFFFFFFFFC
:082B28003200430065007E004D
:102B300001010103030F0F0101010100000000006A
:102B40000000000102020C0CF0F002020101000082
:102B500000000000000001040430300F0F040402E4
:102B6000010000000000000000010808C0C0F0F0F3
:102B7000080802010000000000000000011010031E
:102B8000030F0F10100402000000000000000001FD
:102B900020200C0CF0F020200402000000000000B7
:102BA000000001404030300F0F404008020000009C
:102BB0000000000000018080C0C0F0F080800802AA
:102BC00000000000000000000203030F0FFFFF03DE
:102BD0000301010000000000000000020C0CF00FD7
:102BE000FFFF0C0C0201000000000000000002309A
:102BF000300F0FFFFF303004020000000000000023
:102C00000002C0C0F00FFFFFC0C0080200000000BB
:102C10000000000003010103030F0F010001010088
:102C2000000000000000000302020C0CF0F00200A3
:102C30000101000000000000000003040430300F18
:102C40000F0400020100000000000000000308085B
:102C5000C0C0F0F008000201000000000000000009
:102C600003101003030F0F10000402000000000007
:102C70000000000320200C0CF0F0200004020000F3
:102C800000000000000003404030300F0F400008FB
:102C9000020000000000000000038080C0C0F0F0CF
:102CA0008000080200000000000000000403030F81
:102CB0000FFFFF03000101000000000000000004FE
:102CC0000C0CF0F0FFFF0C000201000000000000FF
:102CD00000000430300F0FFFFF300004020000003E
:102CE000000000000004C0C0F0F0FFFFC0000802B8
:102CF0000000000000000000050F0FFFFFFFFF0FA6
:102D0000000301000000000000000005F0F0FFFFDC
:102D1000FFFFF0000C020000000000000000060FA2
:102D20000FFFFFFFFF0F0F03010000000000000076
:102D30000006F0F0FFFFFFFFF0F00C0200000000C3
:102D40000000000007030103030F0F010001010051
:102D500000000000000000070C020C0CF0F0020064
:102D60000101000000000000000007300430300FB7
:102D70000F04000201000000000000000007C0086E
:102D8000C0C0F0F0080002010000000000000000D8
:102D9000080F030F0FFFFF030001010000000000F8
:102DA00000000008F00CF0F0FFFF0C000201000032
:102DB00000000000000009010101010303010101FD
:102DC000010000000000000000090202040430308D
:102DD00002020101000000000000000009040410CC
:102DE00010030304040201000000000000000009B9
:102DF00008084040303008080201000000000000D0
:102E0000000009101001010303101004020000006B
:102E100000000000000920200404303020200402BB
:102E200000000000000000000940401010030340B3
:102E300040080200000000000000000980804040BF
:102E400030308080080200000000000000000A030B
:102E50000303030F0F030301010000000000000043
:102E6000000A0C0C30300F0F0C0C020100000000A7
:102E7000000000000A303003030F0F30300402005E
:102E8000000000000000000AC0C030300F0FC0C0BA
:102E9000080200000000000000000B0F0F5555FF56
:102EA000FF0F0F030100000000000000000BF0F016
:102EB0005555FFFFF0F00C0200000000000000007C
:102EC0000C0F0F55550F0F0F0F03010000000000EE
:102ED0000000000CF0F055550F0FF0F00C02000050
:102EE0000000000000000D010101010101010101CC
:102EF0000100000000000000000D02020404101098
:102F00000202010100000000000000000D04041096
:102F10001001010404020100000000000000000D87
:102F200008084040101008080201000000000000DE
:102F300000000D101001010101101004020000003A
:102F400000000000000D20200404101020200402C6
:102F500000000000000000000D4040101001014082
:102F600040080200000000000000000D808040408A
:102F700010108080080200000000000000000FFF19
:102F80000FFFFFFFFF0F0003010000000000000023
:102F90000010FF0FFFFFFFFF0F0003010000000004
:102FA0000000000012030103030F0F0100010100E4
:102FB00000000000000000120C020C0CF0F00200F7
:102FC0000101000000000000000012300430300F4A
:102FD0000F04000201000000000000000012C00801
:102FE000C0C0F0F008000201000000000000000076
:102FF000130F030F0FFFFF0300010100000000008B
:1030000000000013F00CF0F0FFFF0C0002010000C4
:1030100000000000000011010103030F0F01010176
:103020000100000000000000001102020C0CF0F092
:103030000202010100000000000000001104043041
:10304000300F0F0404020100000000000000001116
:103050000808C0C0F0F008080201000000000000ED
:10306000000011101003030F0F10100402000000E5
:1030700000000000001120200C0CF0F020200402C1
:10308000000000000000000011404030300F0F40F1
:103090004008020000000000000000118080C0C055
:1030A000F0F0808008020000000000000000140121
:1030B0000303030F0F0300010100000000000000E4
:1030C0000014020C0C0CF0F00C00010100000000D8
:1030D0000000000014043030300F0F3000020100F7
:1030E000000000000000001408C0C0C0F0F0C000E4
:1030F00002010000000000000000170FFFFFFFFFAB
:10310000FFFF000301000000000000000018030F93
:103110000F0FFFFF0F000101000000000000000082
:10312000180CF00F0FFFFFF0000402000000000079
:1031300000000016FFFFFFFFFFFFFFFF030100007D
:1031400000000000000015FF0FFFFFFFFF0F00034E
:0931500001000000000000000075
:10315900B5B5B6B7B7B8B9B9BABBBBBCBDBDBEBFCB
:10316900C0C0C1C1C2C3C3C4C5C5C6C7C7C8C9C910
:10317900CACBCBCCCCCDCECECFD0D0D1D1D2D3D35C
:10318900D4D4D5D6D6D7D7D8D9D9DADADBDBDCDDB2
:10319900DDDEDEDFE0E0E1E1E2E2E3E3E4E5E5E60E
:1031A900E6E7E7E8E8E9EAEAEBEBECECEDEDEEEE71
:1031B900EFF0F0F1F1F2F2F3F3F4F4F5F5F6F6F7D6
:1031C900F7F8F8F9F9FAFAFBFBFCFCFDFDFEFEFF46
:1031D90080808081818282838384848585868687B5
:1031E90087888889898A8A8B8B8B8C8C8D8D8E8E2A
:1031F9008F8F9090909191929293939394949595A7
:10320900969696979798989999999A9A9B9B9B9C29
:103219009C9D9D9D9E9E9F9FA0A0A0A1A1A1A2A2B1
:10322900A3A3A3A4A4A5A5A5A6A6A7A7A7A8A8A83C
:10323900A9A9AAAAAAABABABACACADADADAEAEAECB
:10324900AFAFB0B0B0B1B1B1B2B2B2B3B3B3B4B45D
:10325900B3B2B0AFAEADABAAA9A8A7A6A5A3A2A1C8
:10326900A09F9E9E9D9C9B9A9998979696959493BC
:1032790093929190908F8E8E8D8C8B8B8A8A898870
:1032890088878786858584848383828281818080FB
:10329900FEFCFAF8F6F4F3F1EFEEECEAE9E7E6E41E
:1032A900E3E2E0DFDEDCDBDAD9D7D6D5D4D3D2D17D
:1032B900CFCECDCCCBCAC9C8C7C6C5C5C4C3C2C188
:1032C900C0BFBEBEBDBCBBBABAB9B8B7B7B6B5B553
:1032D90005020502050205020502050205020502AD
:1032E900050205020502050205020502050205029D
:1032F900640F0A0F0A0F640F640F0A0F0A0F640F95
:10330900FA3296320132FA32FA3264320132FA3240
:10331900640F0A0F0A0F640F640F0A0F0A0F640F74
:103329000A020A020A020A020A020A020A020A0234
:103339000A020A020A020A020A020A020A020A0224
:103349000A020A020A020A020A020A020A020A0214
:103359000A020A020A020A020A020A020A020A0204
:103369000A020A020A020A020A020A020A020A02F4
:103379000A020A020A020A020A020A020A020A02E4
:103389000A020A020A020A020A020A020A020A02D4
:103399000A020A020A020A020A020A020A020A02C4
:1033A9000A020A020A020A020A020A020A020A02B4
:1033B9000A020A020A020A020A020A020A020A02A4
:1033C9000A020A020A020A020A020A020A020A0294
:1033D9000A020A020A020A020A020A020A020A0284
:0C33E9000A0A0A0A0A0A0A020A020A0278
:1033F5004D435242504953480070000021080000D7
:1034050007000000000000000000000000000000B0
:1034150000000000000000000000000000000000A7
:103425000000000000000000000000000000000097
:103435000000000000000000000000000000000087
:103445000000000000000000000000000000000077
:103455000000000000000000000000000000000067
:103465000000000000000000000000000000000057
:103475000000000000000000000000000000000047
:103485000000000000000000000000000000000037
:103495000000000000000000000000000000000027
:1034A5000000000000000000000000000000000017
:1034B5000000000000000000000000000000000007
:1034C50000000000000000000000000000000000F7
:1034D50000000000000000000000000000000000E7
:1034E50000000000000000000000000000000000D7
:1034F5004D435242504953480070000021080000D6
:1035050005000000000000000000000000000000B1
:1035150000000000000000000000000000000000A6
:103525000000000000000000000000000000000096
:103535000000000000000000000000000000000086
:103545000000000000000000000000000000000076
:103555000000000000000000000000000000000066
:103565000000000000000000000000000000000056
:103575000000000000000000000000000000000046
:103585000000000000000000000000000000000036
:103595000000000000000000000000000000000026
:1035A5000000000000000000000000000000000016
:1035B5000000000000000000000000000000000006
:1035C50000000000000000000000000000000000F6
:1035D50000000000000000000000000000000000E6
:1035E50000000000000000000000000000000000D6
:1035F5004D4352425049534800001000120000004C
:1036050006000000000000000000000000000000AF
:1036150000000000000000000000000000000000A5
:103625000000000000000000000000000000000095
:103635000000000000000000000000000000000085
:103645000000000000000000000000000000000075
:103655000000000000000000000000000000000065
:103665000000000000000000000000000000000055
:103675000000000000000000000000000000000045
:103685000000000000000000000000000000000035
:103695000000000000000000000000000000000025
:1036A5000000000000000000000000000000000015
:1036B5000000000000000000000000000000000005
:1036C50000000000000000000000000000000000F5
:1036D50000000000000000000000000000000000E5
:1036E50000000000000000000000000000000000D5
:1036F50073656C662D3E7370695F6366672D3E5317
:10370500504978203D3D2028285350495F54797011
:1037150065446566202A29202828283078343030E9
:103725003030303030554C29202B20307830303037
:103735003130303030554C29202B20307833303023
:1037450030554C2929207C7C2073656C662D3E7391
:1037550070695F6366672D3E53504978203D3D2073
:1037650028285350495F54797065446566202A2995
:10377500282830783430303030303030554C2920DE
:0D3785002B20307833383030554C29290086
:1037920000000000000000FFFF0000000000000029
:1037A2000000000000000000000000000000000017
:1037B2000000000000000000000000000000000007
:1037C20000000000000000000000000000000000F7
:1037D20000000000000000000000000000000000E7
:1037E20000000000000000000000000000000000D7
:1037F20000000000000000000000000000000000C7
:1038020000000000000000000000000000000000B6
:1038120000000000000000000000000000000000A6
:103822000000000000000000000000000000000096
:103832000000000000000000000000000000000086
:103842000000000000000000000000000000000076
:103852000000000000000000000000000000000066
:103862000000000000000000000000000000000056
:103872000000000000000000000000000000000046
:103882000000000000000000000000050600020227
:1038920003041103020000010304220400000001DA
:1038A200030444050000000103048819000000011C
:1038B20003031101030000010303220202000001BD
:1038C20003034406000000010303880E0000000108
:1038D20002021109000000010202220A0000000196
:1038E2000202440B000000010202881600000001DF
:1038F200717074722D3E6373506F7274203C203964
:10390200202626204750494F5F506F7274735B71B7
:103912007074722D3E6373506F72745D20213D206E
:02392200300073
:1039240063732D3E737461636B53697A65203E3D06
:103934002073697A656F6628504152414D5F415248
:103944004D464C4153485F585F45524153455F745F
:02395400290048
:10395600433A5C4C4A4D5C3170365F7369616E3335
:103966005F66775F68355C76305F315C66775C737F
:1039760072635C6473705C6473705F7369616E2EEE
:023986006300DC
:1039880063732D3E737461636B53697A65203E3DA2
:103998002073697A656F6628464C4153485F4572C3
:1039A800617365496E697454797065446566290068
:1039B800433A5C4C4A4D5C3170365F7369616E33D3
:1039C8005F66775F68355C76305F315C66775C731D
:1039D80072635C737069304D61737465722E630035
:1039E800433A5C4C4A4D5C3170365F7369616E33A3
:1039F8005F66775F68355C76305F315C66775C73ED
:103A080072635C737461636B53746174652E6300D5
:103A1800433A5C4C4A4D5C3170365F7369616E3372
:103A28005F66775F68355C76305F315C66775C73BC
:0F3A380072635C6932634D61737465722E630053
:103A4700433A5C4C4A4D5C3170365F7369616E3343
:103A57005F66775F68355C76305F315C66775C738D
:0F3A670072635C7370694D61737465722E6300D6
:103A7600433A5C4C4A4D5C3170365F7369616E3314
:103A86005F66775F68355C76305F315C66775C735E
:0E3A960072635C61726D466C6173682E630032
:103AA400433A5C4C4A4D5C3170365F7369616E33E6
:103AB4005F66775F68355C76305F315C66775C7330
:0E3AC40072635C693263536C6176652E630039
:103AD200433A5C4C4A4D5C3170365F7369616E33B8
:103AE2005F66775F68355C76305F315C66775C7302
:0B3AF20072635C69326362622E630045
:103AFD00433A5C4C4A4D5C3170365F7369616E338D
:103B0D005F66775F68355C76305F315C66775C73D6
:0A3B1D0072635C636D69732E630030
:103B2700433A5C4C4A4D5C3170365F7369616E3362
:103B37005F66775F68355C76305F315C66775C73AC
:0A3B470072635C6470736D2E6300FE
:103B5100433A5C4C4A4D5C3170365F7369616E3338
:103B61005F66775F68355C76305F315C66775C7382
:0A3B710072635C7461736B2E6300D5
:103B7B00433A5C4C4A4D5C3170365F7369616E330E
:103B8B005F66775F68355C76305F315C66775C7358
:093B9B0072635C6464622E630035
:103BA400433A5C4C4A4D5C3170365F7369616E33E5
:103BB4005F66775F68355C76305F315C66775C732F
:093BC40072635C6164632E63000E
:103BCD000001012A000002010A00000301000000AB
:103BDD00000128000001012A000002010900000374
:083BED0001000000000140008E
:103BF5000004080C1014181C2024282C3034383CE0
:103C05004044484C5054585C6064686C7074787CCF
:083C1500808488898A8B8C8D64
:103C1D0028417053656C436F6465203E3D2031290A
:103C2D002026262028417053656C436F6465203C27
:063C3D003D203135290095
:103C430000FCFEFCFCFEF4F8F4F8F0F8F0F8F0F8F1
:103C5300F0F8F0F8F0F8F0F8F0F8F0F8F0F8F0F821
:033C6300F0F8F086
:103C66006D656D53697A65203D3D2031207C7C2051
:0D3C76006D656D53697A65203D3D2032007B
:103C830092FEF0F0F4FEF0FEF0FEF0FEF0FEFEFE1B
:0A3C9300FEF4F0FEF0FEF0FEF0F08B
:103C9D0073656C662D3E5F7053656E64427566206C
:083CAD00213D204E554C4C0056
:103CB500686950726951203D3D2051554555455F14
:083CC5005052495F4C4F5700BB
:103CCD003A20617373657274696F6E206661696CF9
:053CDD0065643A2000BF
:103CE200696E2D3E6E624F66536563746F72732008
:043CF2003E20300040
:103CF6005F5F6765745F495053522829203D3D2018
:033D060030550035
:103D09005F5F6765745F495053522829203D3D2004
:033D190030550022
:103D1C005F5F6765745F495053522829203D3D20F1
:033D2C003055000F
:103D2F003038404850586068707880889098A0A8C4
:023D3F00B0B81A
:103D4100404142434A4B4C4D4E4F505152535455B2
:013D5100561B
:103D5200000000000000545452205245474745538A
:013D62000060
:103D630073656C662D3E71756553656C203C20321E
:013D7300004F
:103D74000001020308090A0B0C0D0E0F04050607C7
:103D84000000000000000000010203040607080907
:0F3D9400000102030405060708090A0B0C0D0EB7
:0E3DA300000404080812121A1A2222252528EC
:0E3DB100000102030405060708090A0B0D0EA7
:0C3DBF0010182028C0C8D0D8E0E8F0F8A8
:0C3DCB00737069496478203D3D20300091
:0C3DD700693263496478203D3D203000D3
:0B3DE300737069496478203C203200B6
:0A3DEE007C7C7C7C7C7C3838383803
:0A3DF80072657476203E3D20300015
:0A3E020072657476203E3D2030000A
:093E0C005465726D696E616C0071
:083E1500040506070001020389
:083E1D00060705040203010081
:083E2500070605040302010079
:083E2D00070605040302010071
:083E350000000000010203047B
:063E3D0066616C73650074
:063E430066616C7365006E
:063E490066616C73650068
:063E4F0066616C73650062
:063E550066616C7365005C
:063E5B0066616C73650056
:043E6100FA00AC01B6
:043E65000E0D0B072C
:043E69003F5C7690B4
:023E6D00000152
:023E6F00040548
:023E71000A0045
:023E73003A0013
:023E750030001B
:023E7700300019
:023E7900300017
:023E7B00300015
:023E7D00300013
:023E7F00300011
:013E81000F31
:013E82000F30
:013E8300003E
:103E840082B08DF806009DF806000A3801460091BC
:103E9400962800F2A6800099DFE811F09700A300AD
:103EA400A3009700A3009700A3009700A300A3001A
:103EB400A300A300A300A3009700A300A3009700FE
:103EC400970097009F009F00A300A300A300A300F6
:103ED400A300A300A300A300A300A300A300A300C6
:103EE400A300A300A300A300A30097009B00A300CA
:103EF400A300A300A300A300A300A300A300A300A6
:103F0400A300A300A300A300A300A300A300A30095
:103F1400A300A3009B009B009B009B00A3009B00AD
:103F24009B009B009B009B009B009B009B00A300AD
:103F3400A300A300A3009F009F00A300A300A3006D
:103F4400A300A300A300A300A300A300A300A30055
:103F5400A300A300A300A300A300A300A300A30045
:103F6400A300A300A300A300A300A300A300A30035
:103F7400A300A300A300A300A300A300A300A30025
:103F8400A300A300A300A3009F009F009F009F0025
:103F9400A300A300A300A300A300A300A300A30005
:103FA400A300A300A300A300A300A300A300A300F5
:103FB400A300A300A300A300A300A300A300A300E5
:103FC400A300A300A300A3009F0001208DF8070015
:103FD4000AE002208DF8070006E003208DF80700B0
:103FE40002E000208DF807009DF8070002B070473A
:103FF40082B08DF806009DF806000B38014600914A
:10400400752800F24E800099DFE801F03B3B4B4BF2
:104014004B4B4B4B4B3F3F3F3B3B3B3B3B3F3F3F84
:104024004B4B4B4B4B4B4B4B4B4B4B4B4B4B4B4BDC
:104034004B4B4B4B4B4B4B4B4B4B4B4B4B4B4B4BCC
:104044004B3B3B3B3F4B4B4B4B4B4B3F3F3F4B4B1C
:104054004B3B4B4B4B4B3F3F3F4B4B4B4B4B4B4BE0
:104064004B4B4B4B4B4B4B4B4B4B4B4B4B4B4B4B9C
:104074003F4B4B4B4347434743474347474B4B4BCC
:10408400434701208DF807000EE002208DF8070059
:104094000AE003208DF8070006E004208DF80700ED
:1040A40002E000208DF807009DF8070002B0704779
:1040B40080B5A8B02690269800798DF897002698A8
:1040C400407A8DF896009DF89600013801460691D5
:1040D4000C2800F292830699DFE811F00D004100EC
:1040E4007B00C500100147017B01AB01FE01790291
:1040F400DD021503500326983EF023FF249042F27C
:104104007C70C2F2050023909DF8970002280DD11F
:104114002699012088714FF07EF826990872269816
:104124001CF021FB00208DF89F0069E3249800789F
:1041340023990870239A68460021016040F6792388
:10414400C0F603034FF201603EF0B3FF18B1022042
:104154008DF89F0054E3FF208DF89F0050E39DF8F5
:104164009700092803D002208DF89F0048E3269881
:104174003EF0E7FE229042F27C70C2F205002190EC
:104184002298006855F099FC2199086022980079DA
:10419400219908712298B0F8050000F035FB2199A7
:1041A400A1F80500219A10681179B2F80520EC46AF
:1041B4000023CCF80830CCF80430CCF8003043F2BB
:1041C4000B23C0F6050312F053FDFF208DF89F006A
:1041D40016E39DF89700082803D002208DF89F006D
:1041E4000EE326983EF0ADFE209042F27C70C2F2BF
:1041F40005001F902098006855F05FFC1F99086027
:104204002098808800F000FB1F9988801CF037F903
:104214001F99C1F806001F988088B0F5006F03DD70
:1042240002208DF89F00EBE21F988088B0F5807F14
:1042340003DD02208DF89F00E2E24EF0ECFF18B996
:1042440007208DF89F00DBE21F9A1068D2F8061051
:10425400928843F20B23C0F6050314F0F7FFFF2006
:104264008DF89F00CCE29DF89700062803D0022029
:104274008DF89F00C4E226983EF063FE1E9042F241
:104284007C70C2F205001D901E98006855F015FC64
:104294001D9908602698408800F0B6FA1D99888018
:1042A4004EF0B9FF18B907208DF89F00A8E21CF062
:1042B40046FA05901CF0E3F8014605981D9A928889
:1042C4000DF090FD1CF03BFA1D99C1F806001D9AF3
:1042D4001068D2F806109288EC460023CCF8083017
:1042E400CCF80430CCF8003043F20B23C0F60503BD
:1042F40015F02CF8FF208DF89F0081E29DF89700BF
:104304000A2803D002208DF89F0079E226983EF017
:1043140018FE1C9042F27C70C2F2050004901B90BF
:104324001C98006855F0C9FB1B9908601C984068EC
:1043340055F0C3FB014604981B9A51601B99886091
:104344001B9A68460021016040F6D723C0F6030398
:104354004FF205603EF0ADFE18B107208DF89F00C6
:104364004EE2FF208DF89F004AE226983EF0E9FDD8
:104374001A9042F27C70C2F2050019901A980068F3
:1043840055F09BFB199908601A98406855F095FB05
:10439400199948602698083019998860269904204C
:1043A4008871199A106851689368EE460022CEF815
:1043B4000C20CEF80820CEF8042043F2532CC0F68B
:1043C400050CCEF800C015F001F8FF208DF89F0011
:1043D40016E226983EF0B5FD189042F27C70C2F2C7
:1043E4000500179018980078179908701898407865
:1043F40017994870269808301799C1F80200269931
:1044040001208871179A10785178D2F80220EC466E
:104414000023CCF80830CCF80430CCF8003043F258
:104424005323C0F6050312F069FCFF208DF89F00AA
:10443400E6E19DF89700082803D002208DF89F003C
:10444400DEE126983EF07DFD169042F27C70C2F2C9
:10445400050015901698006855F02FFB1599086013
:104464001698808800F0D0F915998880159880886E
:10447400B0F5006F03DD02208DF89F00C0E11598B0
:1044840000680121C2F20401884208D31599086822
:10449400898808440021C2F2090188420FD3159883
:1044A4000068B0F1006F06D9159908688988084436
:1044B400B0F1026F03D302208DF89F00A0E13BF01E
:1044C4009FFC1BF0DCFF159A116892880DF08AFCA2
:1044D40000208DF89F0093E19DF897000C2803D0ED
:1044E40002208DF89F008BE126983EF02AFD14905F
:1044F40042F27C70C2F2050013901498006855F0E3
:10450400DCFA139908601498406855F0D6FA1399A8
:1045140048601498407A139948721498007A139951
:1045240008721BF0ACFF1399C1F81200139840688D
:10453400B0F5006F03D902208DF89F0060E1139855
:104544000068B0F1006F06D31399086849680844FD
:10455400B0F1026F03D902208DF89F0050E1149846
:10456400007AC0B1139BD3F8121018685A685B7AAA
:10457400EE464FF0000CCEF804C043F20B2CC0F60C
:10458400050CCEF800C04FF0A2FD18B107208DF83D
:104594009F0035E117E0139BD3F8121018685A688E
:1045A4005B7AEE464FF0000CCEF804C043F20B2CBD
:1045B400C0F6050CCEF800C035F027FF18B107206F
:1045C4008DF89F001CE1FF208DF89F0018E19DF8F5
:1045D40097000B2803D002208DF89F0010E1269845
:1045E4003EF0AFFC12901298006855F066FA1190F4
:1045F4001298406855F061FA10901198B0F1006F6C
:1046040005D3119810990844B0F1026F03D9022020
:104614008DF89F00F4E01298007A00B342F27C70A7
:10462400C2F205000F901298006855F046FA0F99EF
:1046340008601298406855F040FA0F9948600F9945
:104644000868496843F20B22C0F60502002335F0DE
:104654000FFD18B107208DF89F00D1E017E01298E4
:10466400006855F02AFA0E901298406855F025FA21
:104674000D900E980D9943F20B22C0F6050200230B
:104684004FF08BFF18B107208DF89F00B8E0FF2092
:104694008DF89F00B4E09DF897000A2803D002200B
:1046A4008DF89F00ACE026983EF04BFC0C9042F253
:1046B4007C70C2F205000B900C98006855F0FDF96F
:1046C4000B9908600C98406855F0F7F90B9948600D
:1046D4001BF0D5FE0B9988600B9A1068516892689C
:1046E400EC460223CCF8003043F27F23C0F60503E6
:1046F40035F0E5FE18B107208DF89F0080E0FF201B
:104704008DF89F007CE09DF897000A2803D00220D2
:104714008DF89F0074E026983EF013FC0A9042F254
:104724007C70C2F2050009900A98006855F0C5F93A
:10473400099908600A98406855F0BFF909994860DA
:104744001BF09DFE09998860099801684268806899
:10475400EC460423CCF8043043F27F23C0F605036F
:10476400CCF80030002315F067FB18B107208DF852
:104774009F0045E0FF208DF89F0041E09DF89700E1
:104784000B2803D002208DF89F0039E026983EF0D4
:10479400D8FB089042F27C70C2F20500079008989A
:1047A400006855F08AF9079908600898406855F040
:1047B40084F9079948600898007A079908721BF0F1
:1047C4005EFE079B19689A881B7A43F20B2CC0F68D
:1047D400050CEE46CEF808C04FF0000CCEF804C02D
:1047E400CEF800C052F0C3FC18B107208DF89F002A
:1047F40006E0FF208DF89F0002E002208DF89F0064
:104804009DF99F0028B080BDDFF800F0D13204206C
:1048140080B59AB01890189800798DF85F009DF8CB
:104824005F00012803DC02208DF86700F2E118988C
:10483400407A8DF8570000F0F1F91690169842F27C
:104844007C71C2F20501C1F884099DF85700013852
:1048540001460A910E2800F2DA810A99DFE811F084
:104864000F00B300D7014A000A016101D701D70143
:10487400D701D701D701D7016B009E00B8019DF87D
:104884005F00032817D11898807A8DF856009DF898
:10489400560030B143F2C720C0F605002CF068FD85
:1048A40005E043F2C720C0F605002CF0E4FDFF202C
:1048B4008DF86700AEE19DF85F00022816D14AF634
:1048C4005C40C2F20400006890F820002038B0FA7E
:1048D40080F040098DF855001899012088719DF8E1
:1048E40055001899087218981BF03DFF00208DF8A8
:1048F40067008FE142F27C70C2F2050014909DF8CB
:10490400570000F57740149A6B460021196040F671
:104914007923C0F603033EF0CCFB40B114984FF466
:1049240092610DF08DFA07208DF8670072E1FF2087
:104934008DF867006EE19DF85F0003280FD1189889
:10494400807A8DF84F009DF84F0043F26731C0F62E
:1049540005014AF0A4FFFF208DF867005AE19DF895
:104964005F00022816D14AF65C40C2F204000068D7
:1049740090F828002038B0FA80F040098DF84E00F5
:104984001899012088719DF84E001899087218989A
:104994001BF0E9FE00208DF867003BE19DF85F0005
:1049A400022810D140F63930C0F603000021FF225E
:1049B4004DF0E7FC18B100208DF867002AE1FF20D4
:1049C4008DF8670026E11BF0BAFE12901898807AE1
:1049D4003F2803DB02208DF867001BE11898817AD9
:1049E40040F68400C0F6010050F821001299C1F885
:1049F4007404129900200990C1F878041BF03FFD5B
:104A04001299C1F87C041BF03AFD02301299C1F8E6
:104A14008404129807901BF032FD01460798202267
:104A24000DF0E0F91298203008901BF028FD0146A3
:104A3400089820314FF48A620DF0D4F909999DF851
:104A4400570000F57740129A6B46196043F207430A
:104A5400C0F605033EF02DFB40B112984FF492616D
:104A64000DF0EEF907208DF86700D3E0FF208DF8F4
:104A74006700CFE09DF85F00092803D002208DF87D
:104A84006700C7E018983EF05CFA119042F27C701F
:104A9400C2F20500109011980078109908701198CE
:104AA400D0F8010055F009F81099C1F801001198E7
:104AB400B0F8050000F0B6F81099A1F805001098B8
:104AC400B0F80500B0F5006F03DD02208DF8670033
:104AD400A0E0109801780691D0F8010005901BF031
:104AE400CEFC059902460698109BB3F80530EE46B5
:104AF4004FF0000CCEF804C043F20B2CC0F6050CAA
:104B0400CEF800C04AF013FC8DF83F009DF83F003A
:104B140018B107208DF867007CE0FF208DF867004E
:104B240078E09DF85F00092803D002208DF8670023
:104B340070E018983EF005FA0E9042F27C70C2F2D2
:104B440005000D900E9800780D9908700E98D0F815
:104B5400010054F0B2FF0D99C1F801000E98B0F8AD
:104B6400050000F05FF80D99A1F805000D98B0F864
:104B74000500B0F5006F03DD02208DF8670049E001
:104B84000D9801780491D0F8010003901BF077FC94
:104B94000399024604980D9BB3F80530EE464FF096
:104BA400000CCEF804C043F20B2CC0F6050CCEF872
:104BB40000C04AF0FEFB8DF833009DF8330018B1B5
:104BC40007208DF8670025E0FF208DF8670021E0BD
:104BD40018983EF0B6F90B909DF8570000F5774011
:104BE4000B9A694608238B604A6000220A6040F6EB
:104BF4007923C0F6030311461BF07AFE18B107208F
:104C04008DF8670006E0FF208DF8670002E00220BF
:104C14008DF867009DF967001AB080BDDFF800F0D9
:0C4C2400E9260420DFF800F0D132042063
:104C3000B0B5B2B03090309800798DF8BE003098A1
:104C4000407A8DF8BD009DF8BD00013801461C91E9
:104C5000062800F284821C99DFE811F00700BB00EF
:104C6000140185015E00CB0125029DF8BE000728D6
:104C700003D002208DF8C70074E230983EF063F94B
:104C80002E9042F27C70C2F205002D902E98007892
:104C90002D9908702E9840782D9948702E9840884C
:104CA00000F064FA2D9948802E9800792D990871AA
:104CB0002D980079812803DB02208DF8C70051E28E
:104CC0002D9801781B914178199140881A901BF01A
:104CD000D8FB19991A9A03461B98DDF8B4C09CF8C2
:104CE00004C043F20B24C0F60504EE46CEF808409B
:104CF0000024CEF80440CEF800C036F065FC8DF8F4
:104D0000BF009DF8BF0018B107208DF8C70029E249
:104D1000FF208DF8C70025E29DF8BE00072803D0CC
:104D200002208DF8C7001DE230983EF00CF92C905F
:104D300042F27C70C2F205002B902C9800782B99DF
:104D400008702C9840782B9948702C98408800F077
:104D50000DFA2B9948802C9800792B9908712B9883
:104D60000079812803DB02208DF8C700FAE12B9837
:104D70004088ADF8AA002B980178189140781590DA
:104D80001BF07FFB1690BDF8AA0017901BF079FB73
:104D90001599169A179B84461898DDF8ACE09EF892
:104DA0000440EE46CEF80440CEF800C036F037FF9F
:104DB0008DF8BF009DF8BF0018B107208DF8C7001F
:104DC000D0E1002014903EF020FA14988DF8C7002E
:104DD000C8E19DF8BE00062803D002208DF8C70068
:104DE000C0E130983EF0AFF8299042F27C70C2F2F8
:104DF000050028902998007828990870299840780B
:104E0000289948702998408800F0B0F9289948807E
:104E10003098408800F0AAF92899087128980079FC
:104E2000812803DB02208DF8C7009BE128980178D8
:104E3000139141781191408812901BF022FB119937
:104E4000129A03461398DDF8A0C09CF804C043F200
:104E50000B24C0F60504EE46CEF808400024CEF838
:104E60000440CEF800C036F0F8FB8DF8BF009DF886
:104E7000BF0018B107208DF8C70073E1FF208DF83F
:104E8000C7006FE19DF8BE00072803D002208DF80F
:104E9000C70067E130983EF056F827902798C07811
:104EA00048B327980079812803DB02208DF8C700DA
:104EB00058E127980178109141780E9180780F90F1
:104EC0001BF0DFFA0E990F9A03461098DDF89CC08C
:104ED0009CF804C043F20B24C0F60504EE46CEF85D
:104EE00008400024CEF80440CEF800C036F0C3F9E4
:104EF0008DF8BF002CE03098408800F037F98DF82D
:104F00009B009DF89B00812803DB02208DF8C700E1
:104F100028E1279801780D9141780B9180780C90C9
:104F20001BF0AFFA0B990C9A03460D989DF89BC0A5
:104F300043F20B24C0F60504EE46CEF808400024E8
:104F4000CEF80440CEF800C036F057FA8DF8BF0016
:104F50009DF8BF0018B107208DF8C70002E1FF20BF
:104F60008DF8C700FEE09DF8BE00012803DC02209A
:104F70008DF8C700F6E030983DF0E5FF25909DF8EC
:104F8000BE00032815D1259800788DF893009DF870
:104F9000930036F0BDFB23903099239888603099B8
:104FA0000420887130981BF0E0FB00208DF8C700CA
:104FB000D8E09DF8BE00072817D1259800788DF815
:104FC0008B002598D0F8010021909DF88B00219945
:104FD00050F0C5FA309900200A90887130981BF083
:104FE000C4FB0A988DF8C700BCE002208DF8C7000A
:104FF000B8E09DF8BE00082803D002208DF8C70055
:10500000B0E030983DF09FFF209042F27C70C2F2F9
:1050100005001F90209800781F990870209840780C
:105020001F9948702098408800F0A0F81F99488088
:10503000209800791F9908711F980079812803DB57
:1050400002208DF8C7008DE01F9801780991417802
:105050000791408808901BF014FA0799089A0346B4
:105060000998DDF87CC09CF804C0DDF880E09EF86B
:10507000054043F20B25C0F60505EE46CEF8085074
:10508000CEF80440CEF800C036F09EFA8DF8BF008E
:105090009DF8BF0018B107208DF8C70062E0FF201F
:1050A0008DF8C7005EE09DF8BE00082803D00220FE
:1050B0008DF8C70056E030983DF045FF1E9042F253
:1050C0007C70C2F205001D901E9800781D99087032
:1050D0001E9840781D9948701E98408800F046F848
:1050E0001D9948803098408800F040F81D9908715B
:1050F0001D980079812803DB02208DF8C70031E07C
:105100001D980178069141780491408805901BF024
:10511000B8F90499059A03460698DDF874C09CF81E
:1051200004C0DDF878E09EF8054043F20B25C0F698
:105130000505EE46CEF80850CEF80440CEF800C083
:1051400036F08BFA8DF8BF009DF8BF0018B107202C
:105150008DF8C70006E0FF208DF8C70002E00220AE
:105160008DF8C7009DF9C70032B0B0BDDFF800F080
:04517000D132042014
:1051740080B58AB044F20030C2F20400407CC0071B
:10518400002840F085804AF67030C2F204000068BE
:105194000078000901460891092807D80899DFE832
:1051A40001F005230505142B0505336147F27470DE
:1051B400C2F20500B0F90020B0F90230012000214C
:1051C4001CF0E5FFADF8260061E047F27470C2F20E
:1051D4000500B0F90420B0F90630012000211CF0CC
:1051E400D6FFADF8260052E044F28070C2F204000B
:1051F400808DADF826004AE044F28070C2F20400CB
:10520400C08DADF8260042E04AF67030C2F20400C8
:1052140000680078C0F3C000079047F27470C2F2CF
:1052240005000390B0F90020B0F902300120049089
:10523400002106911CF0ABFF039B069902460498DB
:105244000592B3F90420B3F906301CF0A0FF059AC7
:1052540006990346079812B21BB21CF098FFADF8EA
:10526400260014E04AF67030C2F2040000680078A8
:10527400C0F3C00044F28071C2F20401B1F92C20E1
:10528400B1F92E3000211CF082FFADF8260037E082
:105294004AF67030C2F204000068007800F003009F
:1052A4000146029128B1029801280BD002980228E5
:1052B40011D044F60000C2F20400B0F85200ADF878
:1052C40026001DE044F60000C2F20400B0F85A00C3
:1052D400ADF8260014E04AF67030C2F2040000680B
:1052E4000078C0F3C00044F60001C2F20401B1F931
:1052F4005220B1F95A3001211CF049FFADF82600C3
:10530400BDF8262044F20020C2F20400123000212D
:1053140001911CF027FF44F6F400C2F20500D0F816
:105324006801BDF8262046F69431C2F2050101F564
:105334000471012343F017F901990F2022F00BFBAC
:08534400BDF826000AB080BD8F
:10534C0080B58AB045F26030C2F205000068407C3E
:10535C004008C007002840F085804AF67030C2F241
:10536C00040000684078000901460891092807D814
:10537C000899DFE801F005230505142B05053361B9
:10538C0047F27470C2F20500B0F90020B0F9023097
:10539C00012000211CF0F7FEADF8260061E047F279
:1053AC007470C2F20500B0F90420B0F90630012087
:1053BC0000211CF0E8FEADF8260052E044F28070AB
:1053CC00C2F20400808DADF826004AE044F28070F1
:1053DC00C2F20400C08DADF8260042E04AF67030EF
:1053EC00C2F2040000684078C0F3C000079047F296
:1053FC007470C2F205000390B0F90020B0F90230CD
:10540C0001200490002106911CF0BDFE039B06991F
:10541C00024604980592B3F90420B3F906301CF047
:10542C00B2FE059A06990346079812B21BB21CF0FD
:10543C00AAFEADF8260014E04AF67030C2F2040061
:10544C0000684078C0F3C00044F28071C2F20401DD
:10545C00B1F92C20B1F92E3000211CF094FEADF8DE
:10546C00260037E04AF67030C2F20400006840783B
:10547C0000F003000146029128B1029801280BD0DC
:10548C000298022811D044F60000C2F20400B0F8D1
:10549C005200ADF826001DE044F60000C2F20400F4
:1054AC00B0F85A00ADF8260014E04AF67030C2F29B
:1054BC00040000684078C0F3C00044F60001C2F25A
:1054CC000401B1F95220B1F95A3001211CF05BFEF4
:1054DC00ADF82600BDF8262044F20020C2F20400EC
:1054EC001430002101911CF039FE44F6F400C2F294
:1054FC000500D0F86C01BDF8262046F69431C2F2B6
:10550C00050101F50671012343F029F801991020DA
:0C551C0022F01DFABDF826000AB080BD88
:1055280080B58AB04AF67030C2F204000068C078CC
:1055380000F0070001283DD14AF67030C2F204009D
:105548000068C07800090146089168B108980428E5
:1055580012D00898082817D044F28070C2F20400CC
:10556800008DADF8260024E044F28070C2F20400F9
:10557800008BADF826001CE044F28070C2F20400F3
:10558800408BADF8260014E04AF67030C2F20400F1
:105598000068C078C0F3C00044F28071C2F2040110
:1055A800B1F91820B1F91A3000211CF0EEFDADF860
:1055B80026008BE04AF67030C2F204000068C0781A
:1055C800000901460791092807D80799DFE801F083
:1055D8000D2B05051C3305053B6944F28070C2F2AA
:1055E8000400008DADF8260070E047F27470C2F236
:1055F8000500B0F90020B0F90230012000211CF0AC
:10560800C4FDADF8260061E047F27470C2F20500EF
:10561800B0F90420B0F90630012000211CF0B5FDD6
:10562800ADF8260052E044F28070C2F20400808D8A
:10563800ADF826004AE044F28070C2F20400C08D42
:10564800ADF8260042E04AF67030C2F20400006865
:10565800C078C0F3C000069047F27470C2F205002B
:105668000290B0F90020B0F9023001200390002127
:1056780005911CF08AFD029B059902460398049245
:10568800B3F90420B3F906301CF07FFD049A05999C
:105698000346069812B21BB21CF077FDADF826003F
:1056A80014E04AF67030C2F204000068C078C0F313
:1056B800C00044F28071C2F20401B1F92C20B1F9A2
:1056C8002E3000211CF061FDADF82600BDF8262023
:1056D80044F20020C2F204001830002101911CF0AD
:1056E8003FFD44F6F400C2F20500D0F87401BDF89D
:1056F800262046F69431C2F2050101F50A7101230C
:1057080042F02FFF0199122022F023F9BDF826005C
:045718000AB080BD96
:10571C0080B586B08DF817008DF816100020049017
:10572C0044F20020C2F2040090F87E008DF80F00C5
:10573C009DF81700A02810DB9DF81700AF280CDC93
:10574C004AF66040C2F2040000689DF8171000EBA6
:10575C00C110A0F5A0400490C6E19DF817002028C8
:10576C0007DB9DF81700372803DC9DF80F00002895
:10577C000BDC9DF81700382808DB9DF817003B2838
:10578C0004DC9DF80F00082800DBADE19DF8170044
:10579C0001460291B12800F243810299DFE811F031
:1057AC00B200B800BE00C4004001400140014001FD
:1057BC0040014001400140014001400140014001D5
:1057CC00CA00D0004001D600DC004001400140017D
:1057DC0040014001400140014001400140014001B5
:1057EC00E200E700EC00F100F600FB00000105010F
:1057FC000A010F01140119011E01220140012601A9
:10580C004001400140014001400140014001400184
:10581C004001400140014001400140014001400174
:10582C004001400140014001400140014001400164
:10583C004001400140014001400140014001400154
:10584C004001400140014001400140014001400144
:10585C004001400140014001400140014001400134
:10586C004001400140014001400140014001400124
:10587C004001400140014001400140014001400114
:10588C004001400140014001400140014001400104
:10589C0040014001400140014001400140014001F4
:1058AC0040014001400140014001400140014001E4
:1058BC0040014001400140014001400140014001D4
:1058CC0040014001400140014001400140014001C4
:1058DC0040014001400140014001400140012A01CA
:1058EC0040014001400140014001400140014001A4
:1058FC004001400140014001400140014001400194
:10590C0040013A0144F28020C2F20400049087E086
:10591C0044F20030C2F20400049081E044F2803082
:10592C00C2F2040004907BE044F28040C2F2040016
:10593C00049075E044F20050C2F2040004906FE051
:10594C0044F28050C2F20400049069E044F200601A
:10595C00C2F20400049063E044F28060C2F20400DE
:10596C0004905DE0002042F0AAFD049058E0012074
:10597C0042F0A5FD049053E0022042F0A0FD0490FB
:10598C004EE0032042F09BFD049049E0002042F0E1
:10599C00A2FD049044E0012042F09DFD04903FE004
