:020000040800F2
:1000000000680420871100087D0F00088106042085
:10001000411000084110000841100008911000082C
:10002000911000089110000891100008911000082C
:100030004110000891100008BB100008CB11000807
:10004000411000084110000841100008411000084C
:10005000411000084110000841100008411000083C
:10006000411000084110000841100008411000082C
:10007000411000084110000841100008411000081C
:10008000411000084110000841100008411000080C
:1000900041100008411000084110000841100008FC
:1000A00041100008411000084110000841100008EC
:1000B00041100008411000084110000841100008DC
:1000C00041100008411000084110000841100008CC
:1000D000911000084110000841100008411000086C
:1000E00041100008411000084110000841100008AC
:1000F000411000084110000841100008411000089C
:10010000411000084110000841100008411000088B
:10011000411000084110000841100008411000087B
:10012000411000084110000841100008411000086B
:10013000411000084110000841100008411000085B
:10014000411000084110000841100008411000084B
:10015000411000084110000841100008411000083B
:10016000411000084110000841100008411000082B
:10017000411000084110000841100008411000081B
:10018000411000084110000841100008411000080B
:1001900041100008411000084110000841100008FB
:1001A00041100008411000084110000841100008EB
:1001B00041100008411000084110000841100008DB
:1001C00041100008411000084110000841100008CB
:1001D00041100008411000084110000841100008BB
:1001E00041100008411000084110000841100008AB
:1001F000411000084110000841100008411000089B
:10020000411000084110000841100008911000083A
:1002100091100008411000089110000841100008DA
:10022000411000084110000841100008411000086A
:10023000411000084110000841100008411000085A
:0C024000411000084110000841100008A7
:04024C00FFFFFFFFB2
:10025000302E35312E303120424F4F542020202077
:1002600032323337303538312D3030312030303084
:100270004A756C20323220323032362031343A35F1
:10028000303A34352020202020202020202020201B
:10029000FFFFFFFFFFFFFFFFFFFFFFFFFFFFFFFF6E
:1002A000FFFFFFFFFFFFFFFFFFFFFFFFFFFFFFFF5E
:1002B000FFFFFFFFFFFFFFFFFFFFFFFFFFFFFFFF4E
:1002C000FFFFFFFFFFFFFFFFFFFFFFFFFFFFFFFF3E
:1002D000FFFFFFFFFFFFFFFFFFFFFFFFFFFFFFFF2E
:1002E000FFFFFFFFFFFFFFFFFFFFFFFFFFFFFFFF1E
:1002F000FFFFFFFFFFFFFFFFFFFFFFFFFFFFFFFF0E
:10030000FFFFFFFFFFFFFFFFFFFFFFFFFFFFFFFFFD
:10031000FFFFFFFFFFFFFFFFFFFFFFFFFFFFFFFFED
:10032000FFFFFFFFFFFFFFFFFFFFFFFFFFFFFFFFDD
:10033000FFFFFFFFFFFFFFFFFFFFFFFFFFFFFFFFCD
:10034000FFFFFFFFFFFFFFFFFFFFFFFFFFFFFFFFBD
:10035000FFFFFFFFFFFFFFFFFFFFFFFFFFFFFFFFAD
:10036000FFFFFFFFFFFFFFFFFFFFFFFFFFFFFFFF9D
:10037000FFFFFFFFFFFFFFFFFFFFFFFFFFFFFFFF8D
:10038000FFFFFFFFFFFFFFFFFFFFFFFFFFFFFFFF7D
:10039000FFFFFFFFFFFFFFFFFFFFFFFFFFFFFFFF6D
:1003A000FFFFFFFFFFFFFFFFFFFFFFFFFFFFFFFF5D
:1003B000FFFFFFFFFFFFFFFFFFFFFFFFFFFFFFFF4D
:1003C000FFFFFFFFFFFFFFFFFFFFFFFFFFFFFFFF3D
:1003D000FFFFFFFFFFFFFFFFFFFFFFFFFFFFFFFF2D
:1003E000FFFFFFFFFFFFFFFFFFFFFFFFFFFFFFFF1D
:1003F000FFFFFFFFFFFFFFFFFFFFFFFFFFFFFFFF0D
:1004000000000000B71DC1046E3B8209D926430DD0
:10041000DC7604136B6BC517B24D861A0550471E68
:10042000B8ED08260FF0C922D6D68A2F61CB4B2B08
:10043000649B0C35D386CD310AA08E3CBDBD4F38B0
:1004400070DB114CC7C6D0481EE09345A9FD524150
:10045000ACAD155F1BB0D45BC2969756758B5652E8
:10046000C836196A7F2BD86EA60D9B6311105A6788
:1004700014401D79A35DDC7D7A7B9F70CD665E7430
:10048000E0B6239857ABE29C8E8DA1913990609590
:100490003CC0278B8BDDE68F52FBA582E5E66486A8
:1004A000585B2BBEEF46EABA3660A9B7817D68B3C8
:1004B000842D2FAD3330EEA9EA16ADA45D0B6CA0F0
:1004C000906D32D42770F3D0FE56B0DD494B71D910
:1004D0004C1B36C7FB06F7C32220B4CE953D75CA28
:1004E00028803AF29F9DFBF646BBB8FBF1A679FF48
:1004F000F4F63EE143EBFFE59ACDBCE82DD07DEC70
:1005000077708634C06D4730194B043DAE56C539FF
:10051000AB0682271C1B4323C53D002E7220C12A37
:10052000CF9D8E1278804F16A1A60C1B16BBCD1F37
:1005300013EB8A01A4F64B057DD00808CACDC90C7F
:1005400007AB9778B0B6567C69901571DE8DD4757F
:10055000DBDD936B6CC0526FB5E6116202FBD066B7
:10056000BF469F5E085B5E5AD17D1D576660DC53B7
:1005700063309B4DD42D5A490D0B1944BA16D840FF
:1005800097C6A5AC20DB64A8F9FD27A54EE0E6A13F
:100590004BB0A1BFFCAD60BB258B23B69296E2B2F7
:1005A0002F2BAD8A98366C8E41102F83F60DEE8777
:1005B000F35DA9994440689D9D662B902A7BEA943F
:1005C000E71DB4E0500075E4892636E93E3BF7EDBF
:1005D0003B6BB0F38C7671F7555032FAE24DF3FE77
:1005E0005FF0BCC6E8ED7DC231CB3ECF86D6FFCBF7
:1005F0008386B8D5349B79D1EDBD3ADC5AA0FBD8BF
:10060000EEE00C6959FDCD6D80DB8E6037C64F641E
:100610003296087A858BC97E5CAD8A73EBB04B77D6
:10062000560D044FE110C54B383686468F2B474296
:100630008A7B005C3D66C158E4408255535D43515E
:100640009E3B1D252926DC21F0009F2C471D5E289E
:10065000424D1936F550D8322C769B3F9B6B5A3B56
:1006600026D6150391CBD40748ED970AFFF0560E16
:10067000FAA011104DBDD014949B93192386521DDE
:100680000E562FF1B94BEEF5606DADF8D7706CFCDE
:10069000D2202BE2653DEAE6BC1BA9EB0B0668EF16
:1006A000B6BB27D701A6E6D3D880A5DE6F9D64DA56
:1006B0006ACD23C4DDD0E2C004F6A1CDB3EB60C99E
:1006C0007E8D3EBDC990FFB910B6BCB4A7AB7DB05E
:1006D000A2FB3AAE15E6FBAACCC0B8A77BDD79A396
:1006E000C660369B717DF79FA85BB4921F467596D6
:1006F0001A163288AD0BF38C742DB081C33071851E
:1007000099908A5D2E8D4B59F7AB085440B6C9506D
:1007100045E68E4EF2FB4F4A2BDD0C479CC0CD4385
:10072000217D827B9660437F4F460072F85BC176E5
:10073000FD0B86684A16476C93300461242DC5650D
:10074000E94B9B115E565A1587701918306DD81CED
:10075000353D9F0282205E065B061D0BEC1BDC0F05
:1007600051A69337E6BB52333F9D113E8880D03A65
:100770008DD097243ACD5620E3EB152D54F6D4298D
:100780007926A9C5CE3B68C1171D2BCCA000EAC8AD
:10079000A550ADD6124D6CD2CB6B2FDF7C76EEDB45
:1007A000C1CBA1E376D660E7AFF023EA18EDE2EE25
:1007B0001DBDA5F0AAA064F4738627F9C49BE6FDCD
:1007C00009FDB889BEE0798D67C63A80D0DBFB842D
:1007D000D58BBC9A62967D9EBBB03E930CADFF97C5
:1007E000B110B0AF060D71ABDF2B32A66836F3A2A5
:1007F0006D66B4BCDA7B75B8035D36B5B440F7B14D
:100800000000C1C081C1400101C3C003800241C2D8
:1008100001C6C006800741C70005C1C581C44004A8
:1008200001CCC00C800D41CD000FC1CF81CE400E58
:10083000000AC1CA81CB400B01C9C009800841C868
:1008400001D8C018801941D9001BC1DB81DA401AD8
:10085000001EC1DE81DF401F01DDC01D801C41DCA8
:100860000014C1D481D5401501D7C017801641D6D8
:1008700001D2C012801341D30011C1D181D04010E8
:1008800001F0C030803141F10033C1F381F24032D8
:100890000036C1F681F7403701F5C035803441F4A8
:1008A000003CC1FC81FD403D01FFC03F803E41FE58
:1008B00001FAC03A803B41FB0039C1F981F8403868
:1008C0000028C1E881E9402901EBC02B802A41EAD8
:1008D00001EEC02E802F41EF002DC1ED81EC402CA8
:1008E00001E4C024802541E50027C1E781E64026D8
:1008F0000022C1E281E3402301E1C021802041E0E8
:1009000001A0C060806141A10063C1A381A24062D7
:100910000066C1A681A7406701A5C065806441A4A7
:10092000006CC1AC81AD406D01AFC06F806E41AE57
:1009300001AAC06A806B41AB0069C1A981A8406867
:100940000078C1B881B9407901BBC07B807A41BAD7
:1009500001BEC07E807F41BF007DC1BD81BC407CA7
:1009600001B4C074807541B50077C1B781B64076D7
:100970000072C1B281B3407301B1C071807041B0E7
:100980000050C190819140510193C05380524192D7
:100990000196C056805741970055C19581944054A7
:1009A000019CC05C805D419D005FC19F819E405E57
:1009B000005AC19A819B405B0199C0598058419867
:1009C0000188C04880494189004BC18B818A404AD7
:1009D000004EC18E818F404F018DC04D804C418CA7
:1009E0000044C184818540450187C04780464186D7
:1009F0000182C042804341830041C18181804040E7
:100A000000000000000000000102030406070809BE
:100A100071B14AF2080CC2F2040C00BF10F8013B9D
:100A2000013983EA12635CF8233083EA0222F5D1AC
:040A3000D0437047F8
:100A3400034C206804348047FBE700F02DFAFEE7FE
:040A4400081200088C
:100A4800F8B540F60047C4F20247F869C0F3C1019F
:100A580040F60010C0F23D00DFE801F0026A0C1118
:100A6800386849F20001C0F3C100C0F2D03121FA60
:100A780000F05DE047F64000C0F27D1058E0B86A2B
:100A8800BE6AB96ABA6B00F00305D008C90600EA65
:100A9800E1706FF35F3000F0BBF9032D044610D00E
:100AA800022D13D0012D36D1386849F20001C0F368
:100AB800C100C0F2D03121FA00F000F0A9F90546D2
:100AC80008E04BF62045C4F6BE3503E042F2004587
:100AD800C4F67425C6F3052000F09AF901462846A5
:100AE80000F020F9796B05466FF35F21084600F0A6
:100AF8008FF9064620464FF0645100F0B1F83146B0
:100B080000F026F84FF07E5100F022F8294600F058
:100B1800A7F8044600E00024786BC0F346200130B3
:100B280000F076F90146204600F0FCF800F060F984
:100B38004AF20401C2F2040108603A6A40F600234E
:100B480002F00F02C0F600039A5CD0400860F8BDBE
:100B58004FF07F4C90EA010F38D4431A3CBFC01ABB
:100B6800C918BCEB400F72D91CEA410F28D0C20D3E
:100B7800B2EBD1534FF0004C4CEA00204CEA012173
:100B8800C3F1200C01FA0CFC31FA03F1401832BF12
:100B9800013A5FEA300040F001005CEA406C04BFB3
:100BA80010F4807F20F08000000A40EBC2504FF024
:100BB800807111EB400F38BF70476FF31600704714
:100BC8001CEA400F01D100F00040704781F000415D
:100BD800431A3EBF83F00043C01AC918BCEB400F4C
:100BE80032D91CEA410F28D0C20DA2EBD1534FF0E5
:100BF800004C4CEA01214CEA0020C3F1200C11FA08
:100C08000CFC21FA03F118BF41F00101401A09D484
:100C180017D0130AD2B2B0FA80F18840521A11DD07
:100C280002EB0322C0F31621400641EBC25038BF45
:100C3800704708BF20F0010070471CEA400F08BF4A
:100C480000207047D8077047BCEB410F03D0BCEBBE
:100C5800400F08BF704740F20000C7F6C0707047E9
:100C68004FF0FF0C1CEAD0521EBF1CEAD153FF2ADA
:100C7800FF2B28D01A444FF0004C90EA010313EAE6
:100C88000C034CEA01214CEA0020A0FB01C1B1F1A0
:100C9800004F62F17F0238BF49004CEA416CFE2ADE
:100CA80009D253EA11204CEAC07C28BFBCF10103E9
:100CB80040EBC2507047124244BF18467047FF20AD
:100CC80043EAC050704710EACC5F08BF00F000400C
:100CD80011EACC5F08BF01F000410CEAD153FF2AAA
:100CE80018BFFF2B03D0484000F000407047002891
:100CF8001EBFB0F1004F0029B1F1004F0DD0FF2AFF
:100D080001D1420209D1FF2B01D14A0205D1484045
:100D18005FF0FF4161F31E00704740F20000C7F624
:040D2800C0707047E0
:100D2C00FF2313EAD0521EBF13EAD153FF2AFF2B25
:100D3C0035D0D21A7F3281EA000C0CF0004C4FF007
:100D4C00004343EA002043EA012130B4431A3CBF7C
:100D5C0001EB4303013A090AB3FBF1F505FB11332F
:100D6C001B02B3FBF1F001FB103300EB05201B025F
:100D7C00B3FBF1F505EB00205CEA500050EBC250E0
:100D8C0030BC002A08DDFF2A38BF70474FF0FF4007
:100D9C001CF00041084370470CF00040704703EA18
:100DAC00D153FF2B07D1FF2A14D05FEA412C0DD071
:100DBC004FF4400016E0FF2A04D14300B3F17F4FFB
:100DCC000BD007E01A4305D0002B06D0484000F0AA
:100DDC00004070474FF4400004E0484000F00040F1
:0C0DEC0040F4000040F0FE40704700BFE3
:100DF800C10DD1F19E0105DB000240F0004020FA50
:100E080001F070474000404038BF0138704700BFCC
:100E1800B0FA80F110FA01F30DD0D1F19D01C905A6
:100E280001EB13205B0638BF704700F1010018BFC3
:080E3800704720F00100704733
:100E40005AB3844690EA01039B071FD1830707D05A
:100E500011F8013B00F8013B013AF7D11CE0844650
:100E6000203A09D32DE9F007B1E8F807A0E8F80720
:100E7000203AF9D2BDE8F0071C3205D451F8043B02
:100E800040F8043B043AF9D2043205D011F8013B92
:0C0E900000F8013B013AF9D160467047C0
:100E9C0072B64FF0006000F0D0F840F6F441C4F2A6
:100EAC00024108680A684AF2000442F400020A602F
:100EBC00C2F204042168C2000CD446F20D030022D5
:100ECC000B800123CA73C1F80B20C1F80720C1F8AD
:100EDC00032004E08A780B7922F03F02013342EAC6
:100EEC00906088700B7100F02EF921684AF6AA22E6
:100EFC000888904210D04BF6BB3290420ED04BF685
:100F0C00AD22904202D1487940060ED400F031F85F
:100F1C002168C87030B908E0012000E0022046F2D8
:100F2C000D020A8000F0AFF8216846F20D0008802F
:020F3C00FEE7CE
:100F3E0010B547F6FC7400220128104647F6A07142
:100F4E00C0F61704C0F61100C0F2060104BF47F642
:100F5E00FC74C0F6070404BF0020C0F60100FFF7C2
:0E0F6E0050FD2168401AB0FA80F0400910BD15
:020F7C00FEE78E
:100F7E0038B500F007F901280CD048BB0120FFF767
:100F8E00D7FF05460220FFF7D3FF55EA00011BD11C
:100F9E0000244CE00124FFF7CBFF002805461FBFBD
:100FAE0047F6FC70C0F60700006810F101003ED154
:100FBE0002200224FFF7BCFF30B147F6FC71C0F6E9
:100FCE0017010968013132D155B348B301242EE01F
:100FDE0002200224FFF7ACFF002805461FBF47F68C
:100FEE00FC70C0F61700006810F101001FD101203F
:100FFE000124FFF79DFF47F6FC71C0F60701096853
:10100E0075EA010118BF0121002818BF00290ED171
:10101E00002818BF0120002D18BF0220044606E04C
:10102E00002818BF01204400002D18BF01242046BF
:02103E0038BDBB
:06104000EFF30580FEE75E
:1010460080B500F038F8FFF7FCFC4AF20400C2F263
:101056000400006841F25971CDF2B711A0FB0101FD
:101066004FF0FF3000EB9130010E18BF08BD4EF275
:101076001001CEF20001486001F61350F022027012
:0A108600002088600720086008BD04
:02109000FEE779
:101092000021C0F6010172B6012818BF01F58011C6
:0A10A2004868096881F308880047D8
:0E10AC004AF20C60C2F204000121017070478C
:0210BA0070477D
:1010BC0040F60041C4F20241012000220860CA61DE
:1010CC000A6208684EF6E323CEF6E2231840086065
:1010DC0040F28020C0F201108A62CA620A6348633F
:1010EC008A63C8630A6448648A640B6842F20C0021
:1010FC0023F480230B600A654EF60851CEF20001F2
:10110C004FF00052C4F202000A60C1684A0F062A6E
:10111C0005D801F06041B1F1404F18BF704701692B
:10112C00C90707D042F63B21C0F61901016001F155
:10113C0044310160016941F002010161016941F032
:06114C0001010161704782
:1011520080B54AF2084040F60001C2F20400C0F62F
:1011620000014FF40072FFF76AFE4AF2080040F2F3
:101172000041C2F20400C0F600014FF48062FFF7A2
:041182006DFE08BD39
:0C118600BFF36F8FBFF34F8FFFF751FCDA
:101192004CF20000C0F6100002884FF6FF718A423E
:1011A2000CD1A0F5801002888A4204BF002070474B
:1011B200028A01208A4208BF02207047028A022066
:0811C2008A4208BF01207047BA
:1011CA0080B54AF20860C2F2040001680131016088
:1011DA00FFF767FF4AF20D60C2F20400017801319D
:1011EA0011F00301017018BF08BD4EF60450CEF28B
:0C11FA000000016841F08051016008BD58
:02120600FFFFE8
:101208004512000808A0042006060000571200082E
:101218008006042038120008020000005712000857
:1012280000A004203A120008080000003F0A000845
:0C123800FEE7500204200090D0030000EC
:10124400206861680834002200E042540139FCD56A
:021254007047E1
:1012560020686168A2680C3401E08B5C8354013A13
:04126600FBD57047FD
:10126A00FFFFFFFFFFFFFFFFFFFFFFFFFFFFFFFF84
:10127A00FFFFFFFFFFFFFFFFFFFFFFFFFFFFFFFF74
:10128A00FFFFFFFFFFFFFFFFFFFFFFFFFFFFFFFF64
:10129A00FFFFFFFFFFFFFFFFFFFFFFFFFFFFFFFF54
:06FFFA00FFFFFFFFFFFF07
:020000040801F1
:10000000FFFFFFFFFFFFFFFFFFFFFFFFFFFFFFFF00
:10001000FFFFFFFFFFFFFFFFFFFFFFFFFFFFFFFFF0
:10002000FFFFFFFFFFFFFFFFFFFFFFFFFFFFFFFFE0
:10003000FFFFFFFFFFFFFFFFFFFFFFFFFFFFFFFFD0
:06FFFA00FFFFFFFFFFFF07
:020000040802F0
:10000000FFFFFFFFFFFFFFFFFFFFFFFFFFFFFFFF00
:10001000FFFFFFFFFFFFFFFFFFFFFFFFFFFFFFFFF0
:10002000FFFFFFFFFFFFFFFFFFFFFFFFFFFFFFFFE0
:10003000FFFFFFFFFFFFFFFFFFFFFFFFFFFFFFFFD0
:06FFFA00FFFFFFFFFFFF07
:020000040803EF
:10000000FFFFFFFFFFFFFFFFFFFFFFFFFFFFFFFF00
:10001000FFFFFFFFFFFFFFFFFFFFFFFFFFFFFFFFF0
:10002000FFFFFFFFFFFFFFFFFFFFFFFFFFFFFFFFE0
:10003000FFFFFFFFFFFFFFFFFFFFFFFFFFFFFFFFD0
:06FFFA00FFFFFFFFFFFF07
:020000040804EE
:10000000FFFFFFFFFFFFFFFFFFFFFFFFFFFFFFFF00
:10001000FFFFFFFFFFFFFFFFFFFFFFFFFFFFFFFFF0
:10002000FFFFFFFFFFFFFFFFFFFFFFFFFFFFFFFFE0
:10003000FFFFFFFFFFFFFFFFFFFFFFFFFFFFFFFFD0
:06FFFA00FFFFFFFFFFFF07
:020000040805ED
:10000000FFFFFFFFFFFFFFFFFFFFFFFFFFFFFFFF00
:10001000FFFFFFFFFFFFFFFFFFFFFFFFFFFFFFFFF0
:10002000FFFFFFFFFFFFFFFFFFFFFFFFFFFFFFFFE0
:10003000FFFFFFFFFFFFFFFFFFFFFFFFFFFFFFFFD0
:06FFFA00FFFFFFFFFFFF07
:020000040806EC
:10000000FFFFFFFFFFFFFFFFFFFFFFFFFFFFFFFF00
:10001000FFFFFFFFFFFFFFFFFFFFFFFFFFFFFFFFF0
:10002000FFFFFFFFFFFFFFFFFFFFFFFFFFFFFFFFE0
:10003000FFFFFFFFFFFFFFFFFFFFFFFFFFFFFFFFD0
:06FFFA00FFFFFFFFFFFF07
:020000040807EB
:10000000FFFFFFFFFFFFFFFFFFFFFFFFFFFFFFFF00
:10001000FFFFFFFFFFFFFFFFFFFFFFFFFFFFFFFFF0
:10002000FFFFFFFFFFFFFFFFFFFFFFFFFFFFFFFFE0
:10003000FFFFFFFFFFFFFFFFFFFFFFFFFFFFFFFFD0
:06FFFA00FFFFFFFFFFFF07
:020000040808EA
:10000000FFFFFFFFFFFFFFFFFFFFFFFFFFFFFFFF00
:10001000FFFFFFFFFFFFFFFFFFFFFFFFFFFFFFFFF0
:10002000FFFFFFFFFFFFFFFFFFFFFFFFFFFFFFFFE0
:10003000FFFFFFFFFFFFFFFFFFFFFFFFFFFFFFFFD0
:06FFFA00FFFFFFFFFFFF07
:020000040809E9
:10000000FFFFFFFFFFFFFFFFFFFFFFFFFFFFFFFF00
:10001000FFFFFFFFFFFFFFFFFFFFFFFFFFFFFFFFF0
:10002000FFFFFFFFFFFFFFFFFFFFFFFFFFFFFFFFE0
:10003000FFFFFFFFFFFFFFFFFFFFFFFFFFFFFFFFD0
:06FFFA00FFFFFFFFFFFF07
:02000004080AE8
:10000000FFFFFFFFFFFFFFFFFFFFFFFFFFFFFFFF00
:10001000FFFFFFFFFFFFFFFFFFFFFFFFFFFFFFFFF0
:10002000FFFFFFFFFFFFFFFFFFFFFFFFFFFFFFFFE0
:10003000FFFFFFFFFFFFFFFFFFFFFFFFFFFFFFFFD0
:06FFFA00FFFFFFFFFFFF07
:02000004080BE7
:10000000FFFFFFFFFFFFFFFFFFFFFFFFFFFFFFFF00
:10001000FFFFFFFFFFFFFFFFFFFFFFFFFFFFFFFFF0
:10002000FFFFFFFFFFFFFFFFFFFFFFFFFFFFFFFFE0
:10003000FFFFFFFFFFFFFFFFFFFFFFFFFFFFFFFFD0
:06FFFA00FFFFFFFFFFFF07
:02000004080CE6
:10000000FFFFFFFFFFFFFFFFFFFFFFFFFFFFFFFF00
:10001000FFFFFFFFFFFFFFFFFFFFFFFFFFFFFFFFF0
:10002000FFFFFFFFFFFFFFFFFFFFFFFFFFFFFFFFE0
:10003000FFFFFFFFFFFFFFFFFFFFFFFFFFFFFFFFD0
:06FFFA00FFFFFFFFFFFF07
:02000004080DE5
:10000000FFFFFFFFFFFFFFFFFFFFFFFFFFFFFFFF00
:10001000FFFFFFFFFFFFFFFFFFFFFFFFFFFFFFFFF0
:10002000FFFFFFFFFFFFFFFFFFFFFFFFFFFFFFFFE0
:10003000FFFFFFFFFFFFFFFFFFFFFFFFFFFFFFFFD0
:06FFFA00FFFFFFFFFFFF07
:02000004080EE4
:10000000FFFFFFFFFFFFFFFFFFFFFFFFFFFFFFFF00
:10001000FFFFFFFFFFFFFFFFFFFFFFFFFFFFFFFFF0
:10002000FFFFFFFFFFFFFFFFFFFFFFFFFFFFFFFFE0
:10003000FFFFFFFFFFFFFFFFFFFFFFFFFFFFFFFFD0
:06FFFA00FFFFFFFFFFFF07
:02000004080FE3
:10000000FFFFFFFFFFFFFFFFFFFFFFFFFFFFFFFF00
:10001000FFFFFFFFFFFFFFFFFFFFFFFFFFFFFFFFF0
:10002000FFFFFFFFFFFFFFFFFFFFFFFFFFFFFFFFE0
:10003000FFFFFFFFFFFFFFFFFFFFFFFFFFFFFFFFD0
:06FFFA00FFFFFFFFFFFF07
:020000040810E2
:10000000FFFFFFFFFFFFFFFFFFFFFFFFFFFFFFFF00
:10001000FFFFFFFFFFFFFFFFFFFFFFFFFFFFFFFFF0
:10002000FFFFFFFFFFFFFFFFFFFFFFFFFFFFFFFFE0
:10003000FFFFFFFFFFFFFFFFFFFFFFFFFFFFFFFFD0
:1004000000000000B71DC1046E3B8209D926430DD0
:10041000DC7604136B6BC517B24D861A0550471E68
:10042000B8ED08260FF0C922D6D68A2F61CB4B2B08
:10043000649B0C35D386CD310AA08E3CBDBD4F38B0
:1004400070DB114CC7C6D0481EE09345A9FD524150
:10045000ACAD155F1BB0D45BC2969756758B5652E8
:10046000C836196A7F2BD86EA60D9B6311105A6788
:1004700014401D79A35DDC7D7A7B9F70CD665E7430
:10048000E0B6239857ABE29C8E8DA1913990609590
:100490003CC0278B8BDDE68F52FBA582E5E66486A8
:1004A000585B2BBEEF46EABA3660A9B7817D68B3C8
:1004B000842D2FAD3330EEA9EA16ADA45D0B6CA0F0
:1004C000906D32D42770F3D0FE56B0DD494B71D910
:1004D0004C1B36C7FB06F7C32220B4CE953D75CA28
:1004E00028803AF29F9DFBF646BBB8FBF1A679FF48
:1004F000F4F63EE143EBFFE59ACDBCE82DD07DEC70
:1005000077708634C06D4730194B043DAE56C539FF
:10051000AB0682271C1B4323C53D002E7220C12A37
:10052000CF9D8E1278804F16A1A60C1B16BBCD1F37
:1005300013EB8A01A4F64B057DD00808CACDC90C7F
:1005400007AB9778B0B6567C69901571DE8DD4757F
:10055000DBDD936B6CC0526FB5E6116202FBD066B7
:10056000BF469F5E085B5E5AD17D1D576660DC53B7
:1005700063309B4DD42D5A490D0B1944BA16D840FF
:1005800097C6A5AC20DB64A8F9FD27A54EE0E6A13F
:100590004BB0A1BFFCAD60BB258B23B69296E2B2F7
:1005A0002F2BAD8A98366C8E41102F83F60DEE8777
:1005B000F35DA9994440689D9D662B902A7BEA943F
:1005C000E71DB4E0500075E4892636E93E3BF7EDBF
:1005D0003B6BB0F38C7671F7555032FAE24DF3FE77
:1005E0005FF0BCC6E8ED7DC231CB3ECF86D6FFCBF7
:1005F0008386B8D5349B79D1EDBD3ADC5AA0FBD8BF
:10060000EEE00C6959FDCD6D80DB8E6037C64F641E
:100610003296087A858BC97E5CAD8A73EBB04B77D6
:10062000560D044FE110C54B383686468F2B474296
:100630008A7B005C3D66C158E4408255535D43515E
:100640009E3B1D252926DC21F0009F2C471D5E289E
:10065000424D1936F550D8322C769B3F9B6B5A3B56
:1006600026D6150391CBD40748ED970AFFF0560E16
:10067000FAA011104DBDD014949B93192386521DDE
:100680000E562FF1B94BEEF5606DADF8D7706CFCDE
:10069000D2202BE2653DEAE6BC1BA9EB0B0668EF16
:1006A000B6BB27D701A6E6D3D880A5DE6F9D64DA56
:1006B0006ACD23C4DDD0E2C004F6A1CDB3EB60C99E
:1006C0007E8D3EBDC990FFB910B6BCB4A7AB7DB05E
:1006D000A2FB3AAE15E6FBAACCC0B8A77BDD79A396
:1006E000C660369B717DF79FA85BB4921F467596D6
:1006F0001A163288AD0BF38C742DB081C33071851E
:1007000099908A5D2E8D4B59F7AB085440B6C9506D
:1007100045E68E4EF2FB4F4A2BDD0C479CC0CD4385
:10072000217D827B9660437F4F460072F85BC176E5
:10073000FD0B86684A16476C93300461242DC5650D
:10074000E94B9B115E565A1587701918306DD81CED
:10075000353D9F0282205E065B061D0BEC1BDC0F05
:1007600051A69337E6BB52333F9D113E8880D03A65
:100770008DD097243ACD5620E3EB152D54F6D4298D
:100780007926A9C5CE3B68C1171D2BCCA000EAC8AD
:10079000A550ADD6124D6CD2CB6B2FDF7C76EEDB45
:1007A000C1CBA1E376D660E7AFF023EA18EDE2EE25
:1007B0001DBDA5F0AAA064F4738627F9C49BE6FDCD
:1007C00009FDB889BEE0798D67C63A80D0DBFB842D
:1007D000D58BBC9A62967D9EBBB03E930CADFF97C5
:1007E000B110B0AF060D71ABDF2B32A66836F3A2A5
:1007F0006D66B4BCDA7B75B8035D36B5B440F7B14D
:100800000000C1C081C1400101C3C003800241C2D8
:1008100001C6C006800741C70005C1C581C44004A8
:1008200001CCC00C800D41CD000FC1CF81CE400E58
:10083000000AC1CA81CB400B01C9C009800841C868
:1008400001D8C018801941D9001BC1DB81DA401AD8
:10085000001EC1DE81DF401F01DDC01D801C41DCA8
:100860000014C1D481D5401501D7C017801641D6D8
:1008700001D2C012801341D30011C1D181D04010E8
:1008800001F0C030803141F10033C1F381F24032D8
:100890000036C1F681F7403701F5C035803441F4A8
:1008A000003CC1FC81FD403D01FFC03F803E41FE58
:1008B00001FAC03A803B41FB0039C1F981F8403868
:1008C0000028C1E881E9402901EBC02B802A41EAD8
:1008D00001EEC02E802F41EF002DC1ED81EC402CA8
:1008E00001E4C024802541E50027C1E781E64026D8
:1008F0000022C1E281E3402301E1C021802041E0E8
:1009000001A0C060806141A10063C1A381A24062D7
:100910000066C1A681A7406701A5C065806441A4A7
:10092000006CC1AC81AD406D01AFC06F806E41AE57
:1009300001AAC06A806B41AB0069C1A981A8406867
:100940000078C1B881B9407901BBC07B807A41BAD7
:1009500001BEC07E807F41BF007DC1BD81BC407CA7
:1009600001B4C074807541B50077C1B781B64076D7
:100970000072C1B281B3407301B1C071807041B0E7
:100980000050C190819140510193C05380524192D7
:100990000196C056805741970055C19581944054A7
:1009A000019CC05C805D419D005FC19F819E405E57
:1009B000005AC19A819B405B0199C0598058419867
:1009C0000188C04880494189004BC18B818A404AD7
:1009D000004EC18E818F404F018DC04D804C418CA7
:1009E0000044C184818540450187C04780464186D7
:1009F0000182C042804341830041C18181804040E7
:040000050800118757
:00000001FF
